:100000000C9451030C9498030C9498030C9498034B
:100010000C9498030C9498030C9498030C949803F4
:100020000C9498030C9498030C94B6220C947222AE
:100030000C94B3230C9498030C9498030C94980399
:100040000C9498030C9498030C9498030C949803C4
:100050000C9498030C948F230C9498030C9498039D
:100060000C9498030C9498030C9498030C949803A4
:100070000C9498030C9498030C9498030C94980394
:100080000C9498030C9498030C9498030C94980384
:100090000C9498030C9498030C9498030C94980374
:1000A0000C9498030C9498030C949803050109028E
:1000B000A10185020901A1000509190129081500FE
:1000C0002501950875018102050109300931158165
:1000D000257F95027508810609381581257F9501D0
:1000E00075088106050C0A38021581257F95017572
:1000F000088106C0C005010980A101850319012AF4
:10010000B700150126B700950175108100C0050CD8
:100110000901A101850419012AA002150126A002E6
:10012000950175108100C00660FF0961A101096297
:10013000150026FF00952075088102096315002629
:10014000FF00952075089102C005010906A101056F
:100150000719E029E7150025019508750181029529
:1001600001750881010507190029FF150026FF0008
:100170009506750881000508190129059505750181
:100180009102950175039101C0000000000000007C
:10019000000000000000000000000000000000005F
:1001A000000000000000000000000000007E0F00C2
:1001B000D4FFFFFFC700000078000000000000002F
:1001C000002A2B28000000000000000000000000B2
:1001D0000000000029000000002C1E3420212224F1
:1001E000342627252E362D3738271E1F202122237F
:1001F0002425263333362E37381F04050607080911
:100200000A0B0C0D0E0F10111213141516171819D6
:100210001A1B1C1D2F3130232D3504050607080934
:100220000A0B0C0D0E0F10111213141516171819B6
:100230001A1B1C1D2F3130354C00047F3F1F6432C8
:1002400014643214783C1E1E140A050001010101D9
:100250000101010101020202020202020202030381
:100260000303030303030404040404040405050551
:100270000505060606060607070707070808080813
:10028000090909090A0A0A0B0B0B0C0C0C0D0D0DC0
:100290000E0E0E0F0F0F1010111111121213131456
:1002A00014151516161717181819191A1A1B1B1CCE
:1002B0001D1D1E1E1F202021222223242425262628
:1002C000272829292A2B2C2D2D2E2F30313232335D
:1002D0003435363738393A3B3C3D3E3F4041424366
:1002E0004445464748494A4C4D4E4F50515354554A
:1002F0005658595A5B5D5E5F616264656668696BFA
:100300006C6D6F7072737577787A7B7D7E80828377
:100310008587888A8C8E8F91939596989A9C9EA0BB
:10032000A2A3A5A7A9ABADAFB1B3B5B7BABCBEC0C8
:10033000C2C4C6C9CBCDCFD1D4D6D8DBDDDFE2E491
:10034000E7E9EBEEF0F3F5F8FAFDFFFFAA7F554081
:100350002223252628292A2C2D2F303233353638D2
:100360003A3B3D3E4042434547494A4C4E5051532B
:100370005557595A5C5E6062646668696B6D6F714F
:10038000737577797B7D7F81838587898A8C8E9051
:10039000929496989A9C9E9FA1A3A5A7A8AAACAE5A
:1003A000AFB1B3B4B6B8B9BBBCBEBFC1C2C3C5C69A
:1003B000C7C9CACBCCCDCED0D1D2D2D3D4D5D6D743
:1003C000D7D8D9D9DADADBDBDBDCDCDCDCDCDDDD81
:1003D000DDDDDCDCDCDCDCDBDBDBDADAD9D9D8D771
:1003E000D7D6D5D4D3D2D2D1D0CECDCCCBCAC9C713
:1003F000C6C5C3C2C1BFBEBCBBB9B8B6B4B3B1AF4A
:10040000AEACAAA8A7A5A3A19F9E9C9A98969492E9
:10041000908E8C8A89878583817F7D7B79777573C0
:10042000716F6D6B6968666462605E5C5A5957559E
:100430005351504E4C4A4947454342403E3D3B3A5A
:100440003836353332302F2D2C2A292826252322E1
:100450002B0014001A00080015001700F4002A00F1
:10046000130012000C0018001C00F500E00004004E
:100470001600070009000A00F600340033000F00E0
:100480000E000D000B000000E1001D001B00060027
:10049000190005004B002D00380037003600100011
:1004A0001100000000000000E300E2008B412C007E
:1004B0004E00000000004C002A008A422800000084
:1004C00029001E021F02200221022202F7002A0038
:1004D00027022602250224022302F8002B00000036
:1004E0000000000000000000F6003402330230007B
:1004F0002F0030022F020000E100350035026400B9
:10050000310200004B002D023802370236022E0263
:100510002E00000000000000E300E20001002C00BB
:100520004E00000000004C002A0003582800000084
:1005300029001E001F00200021002200F7002A00D1
:1005400027002600250024002300F8002B003A0095
:100550003B003C003D003E00F600000000004F0064
:100560005200510050000000E1003F0040004100F7
:10057000420043004B0000000000000000000000AB
:100580000000000000000000E300E20003582C001F
:100590004E00000000004C002A000100280000006E
:1005A000000000000000000000000000F400000057
:1005B0000000000000000000C25CF5000000000028
:1005C0000000000000000000F60000000000C95C10
:1005D000C75CC55CC35C00000000000000000000B8
:1005E000000000004B0000000000CA5CC85CC65C54
:1005F000C45C0000000000000000000001000000DA
:100600004E0000000000000000000100000000009B
:1006100009025B00030100A0FA09040000010301C4
:100620000100092111010001224000070581030892
:10063000000A090401000203000000092111010061
:100640000122220007058203200001070503032081
:10065000000109040200010300000009211101004A
:1006600001227B000705840320000A12010002001A
:10067000000008EDFE00000100010200011003630C
:10068000006F0063006F0074003400360000000C3F
:100690000361006B006900320037000000040309A9
:1006A000040011241FBECFEFDAE0DEBFCDBF04B6D9
:1006B00003FE27C08091A4029091A502A091A602FA
:1006C000B091A7028730904BA740B04BD1F4109265
:1006D000A4021092A5021092A6021092A70214BEC4
:1006E00084B7877F84BF0FB6F894A8958091600087
:1006F000886180936000109260000FBEE0E0F8E334
:10070000099511E0A0E0B1E0EAECF9E502C005903E
:100710000D92AC3AB107D9F722E0ACEAB1E001C0E2
:100720001D92A43AB207E1F70E94DA230C94AC2C94
:100730000C940000E8EDF0E080818E7F80831092C1
:10074000E2001092DA001092E100A0EEB0E08C918D
:1007500081608C9380818F77808319BCA7EDB0E096
:100760008C918E7F8C9380818F7E80831092890202
:1007700008952091E4003091E50095E6A9012091CB
:10078000EC00822F817020FF06C08091E80080FF7E
:1007900006C080E008952091E80022FD1AC08091F3
:1007A0009602882389F0853089F08091EB0085FDE1
:1007B0000FC02091E4003091E50042175307F9F291
:1007C0009150E1F684E0089582E0089583E0089571
:1007D00081E00895EF92FF920F931F93CF937C01D6
:1007E0008B010E94B903C82F811117C08091E800C6
:1007F00085FD0BC08091E8008E778093E8000E9411
:10080000B903882399F3C82F08C0F70181917F01AC
:100810008093F1000150110949F78C2FCF911F915E
:100820000F91FF90EF9008958091980287FF13C079
:100830008091E80082FF06C08091E8008B7780936A
:10084000E80004C0809196028111F2CF0895809152
:1008500096028823D9F38091E80080FFF8CF809139
:10086000E8008E77ECCF982F9093E900242F762F15
:1008700050E0891731F07091EC002091ED0050911B
:10088000F00021FD07C09F5F973071F78093E9006A
:1008900081E008953091EB003E7F3093EB00309182
:1008A000ED003D7F3093ED003091EB0031603093EF
:1008B000EB007093EC002093ED005093F00020913A
:1008C000EE0027FDE0CF80E00895CF92DF92EF9217
:1008D000FF920F931F93CF93DF93C8EDD0E08881F1
:1008E0008F7E8883E7EDF0E080818160808384E003
:1008F00082BF81E08093890288818E7F888302EEA7
:1009000010E0F80110821092DA0081EEC82ED12C8E
:10091000F601108288818F77888388818068888338
:1009200088818F7D888319BC10929602109297025D
:10093000109295021092940290EEE92EF12CF7019C
:1009400080818B7F808388818160888342E060E042
:1009500080E00E943304F60180818E7F8083F8015D
:10096000808181608083808188608083F7018081BD
:100970008E7F8083888180618883DF91CF911F91F2
:100980000F91FF90EF90DF90CF900895FC01809140
:100990009E0290919F0286179707A0F0611571053E
:1009A00029F49091E8009E779093E80090E061151B
:1009B000710551F4911108C08091E80082FF34C0A4
:1009C00080E00895BC01F2CF809196028823C1F1A6
:1009D0008530C1F18091E80083FD30C08091E8004E
:1009E00082FDEACF8091E80080FFE1CF8091F300A3
:1009F0002091F200382F6115710519F0283031056A
:100A000058F091E02830310509F090E02091E8009D
:100A10002E772093E800CBCF81918093F100615035
:100A200071092F5F3F4FE7CF80919602882341F0F5
:100A3000853041F08091E80083FFBECF81E00895CA
:100A400082E0089583E00895089580918B020895CF
:100A500087E797E7909301088093000888E19AE080
:100A60000FB6F894A895809360000FBE9093600035
:100A7000FFCF9C014FB7F89480918202909183023E
:100A8000A0918402B09185024FBF821B930B089501
:100A90002FB7F8948091820290918302A0918402F2
:100AA000B09185022FBF08959C01FC0132969FEF03
:100AB00080E04191461751F09F3F19F4411101C068
:100AC000982F8F5F8630A9F79F3F09F40895290F6B
:100AD000311D97FD3A95F9016283089520917F02B7
:100AE000309180022817390771F09093800280932B
:100AF0007F02E0917D02F0917E02309721F0008428
:100B0000F185E02D0994089520917B0230917C02BB
:100B10002817390771F090937C0280937B02E09153
:100B20007D02F0917E02309721F00680F781E02D62
:100B300009940895E0917D02F0917E02309739F09A
:100B400022E0DC012C930480F581E02D09940895C6
:100B5000E0917D02F0917E02309721F00190F081CA
:100B6000E02D099480E00895FA01811101C0FB0194
:100B70000994089580917602982F9E7F61F4817088
:100B800082608093760280917902893718F088E735
:100B90008093790208958A34B0F381708864F1CF2C
:100BA000AF92BF92DF92EF92FF920F931F93CF937A
:100BB000DF93082F162FE901E42FF0E0E55BFD4FEE
:100BC000611110C0E4915E2F4E2F4983E8835A8350
:100BD000DF91CF911F910F91FF90EF90DF90BF9029
:100BE000AF900895E62EF12C4491D42EE42FF0E03E
:100BF00026E0829FC00111242FEF30E0B9010E944E
:100C0000182A802F90E0880F991F55E5569FD00134
:100C1000579FB00D11248A1B9B0B982F990F890F9A
:100C20005901AE18BF08AE9ED001AF9EB00DBE9E5A
:100C3000B00D11245B2F189F80011124012F112763
:100C40005901A01AB10AAE9E8001AF9E100DBE9E42
:100C5000100D11245901A81AB108AE9CC001AF9C17
:100C6000900DBE9C900D1124892F9927281B390BBC
:100C70002E9FC0012F9F900D3E9F900D1124E92FB4
:100C800062307105A1F050F46115710509F49DCF32
:100C90006130710581F0EB2F512F97CF64307105D2
:100CA00069F080F06630710509F48FCFF4CFE42F3E
:100CB0004B2F592F8ACFE42F412F87CFEB2F542F63
:100CC000492F83CF4B2F5D2DE12F7FCFCF93DF9324
:100CD000CDB7DEB72C970FB6F894DEBF0FBECDBFF1
:100CE0004F83588769877A878B879C8786E0FE01C8
:100CF0003796DE01119601900D928A95E1F72981D0
:100D00003A814B815C816D817E8180E090E02C9600
:100D10000FB6F894DEBF0FBECDBFDF91CF9108951F
:100D2000CF93DF9300D000D000D0CDB7DEB749839A
:100D30005A836B837C838D839E8386E0FE0131968C
:100D4000A4E4B2E001900D928A95E1F726960FB6E1
:100D5000F894DEBF0FBECDBFDF91CF910895CF9342
:100D6000DF9300D000D000D0CDB7DEB786E0E4E45A
:100D7000F2E0DE01119601900D928A95E1F729814A
:100D80003A814B815C816D817E8180E090E0269686
:100D90000FB6F894DEBF0FBECDBFDF91CF9108959F
:100DA0000E9448059C0190913A0280913B02982B49
:100DB00021F0309337022093360290913C028091CB
:100DC0003D02982B21F0309335022093340288E3C2
:100DD00092E00C949A0540913A02803F59F4809138
:100DE0003B0287FF0DC010923B0241110BC01092D5
:100DF000320208C0813F81F480913B0218169CF3B7
:100E0000442381F080913C0290913D02892B09F0AE
:100E10005AC0109231020895823F49F447FFF0CF43
:100E200010923A0280913B028111ECCFE0CF833FD8
:100E300019F41416ACF3E4CF90913C02893F29F4E5
:100E40001916F4F610923C02DBCF8A3F19F497FF93
:100E5000D7CFF8CF90913D028B3F29F497FFD0CFA9
:100E600010923D02CDCF8C3F19F41916CCF3C8CFA8
:100E70009CE0980F953090F4845F990B21E030E06E
:100E8000B90102C0660F771F8A95E2F7CB01809502
:100E900090913902892380933902B2CF8D3F31F48A
:100EA000809133028E7F80933302AACF8E3F21F44C
:100EB000809133028D7FF7CF8F3F09F0A1CF8091D2
:100EC00033028B7FF0CF08958091330280FD16C0EE
:100ED00081FD16C082FD16C0809131028823A1F0E9
:100EE000883280F428E0829FC001112468E270E01B
:100EF0000E942C2A862F672B39F0089582E00895EE
:100F000084E0089588E0089581E008958091330297
:100F100080FD14C081FD14C082FD16C08091320294
:100F2000882381F0843180F422E3829FC001112460
:100F300064E170E00E942C2A862F08958CE00895C9
:100F400089E1089585E0089582E30895803F31F4B2
:100F50000E948607819580933B020895813F19F492
:100F60000E948607F8CF823F31F40E948607819560
:100F700080933A020895833F19F40E948607F8CFC0
:100F8000893F29F40E94640780933C0208958A3FB8
:100F900021F40E9464078195F7CF8B3F31F40E94C2
:100FA0006407819580933D0208958C3F19F40E9457
:100FB0006407F8CF9CE0980F953070F4845F990B2C
:100FC00021E030E001C0220F8A95EAF780913902D2
:100FD000822B8093390208958D3F31F48091330242
:100FE00081608093330208958E3F21F48091330213
:100FF0008260F7CF8F3FB9F7809133028460F1CFE1
:1010000080E008959091110292FF06C0282F287168
:101010002830F9F4877F846093FF06C0282F287159
:101020002831F1F4877E84612091120220FF06C0EE
:10103000382F38713830D9F4877F816021FF06C09E
:10104000282F28712831D1F4877E816194FD877E15
:101050000895282F24712430F9F68B7F8860DCCF27
:10106000282F2471243101F78B7E8861DDCF382F42
:101070003171313019F78E7F8860E0CF282F2171D0
:10108000213121F78E7E8861E1CFCF93DF93EC0190
:1010900082389105A9F1D8F58133910509F496C0FC
:1010A00048F58932910509F48AC08A9709F495C0F8
:1010B000C11521E5D20708F0BCC0C11530E5D30742
:1010C00008F014C1C83ED10508F09CC0C03ED1054F
:1010D00060F5C83AD10508F087C0C53AD10508F0D7
:1010E000FDC0C130D10509F12097F9F0C430D10518
:1010F000E0F440C08533910509F45AC0C997C1F6A0
:1011000080911102837089F0C0EED0E00EC0833E62
:10111000910599F170F4803E910501F1823E9105AF
:1011200039F68091110282FD21C0CE01DF91CF916D
:101130000895863E910561F1873E910571F1843EE7
:10114000910509F0B5CF8091120281FFEECF809119
:101150001102C7EED0E084FD0DC0E7CF80911102EF
:1011600080FD12C19091120290FFDFCFC3EED0E05C
:1011700084FFDBCFD0E0C0E0D8CF8091110282FDA8
:1011800006C19091120290FDBFCF84FFCECFF2CF67
:101190008091110283FDDDCFC8CF8091110283FDC4
:1011A000F9C09091120291FFF0CFC4EED0E0BDCF14
:1011B0008091110285FFB9CFC9E2D0E0B6CF80910E
:1011C000110285FFB2CFC5E3D0E0AFCF809111020D
:1011D00086FFABCFCAE2D0E0A8CF8091110286FF94
:1011E000A4CFC1E3D0E0A1CFCF3BD10518F6C85AB8
:1011F000D0E0CC0FDD1FC85DDE4F0990D881C02D37
:10120000D46493CFC11540E2D40758F4C11581E0EE
:10121000D80708F08ACFC03FD10508F4ABCFD0651E
:1012200084CFC11590E4D90708F4A4CFDF70D06A49
:101230007CCFC11525E5D20700F5C11534E5D307EC
:1012400008F08AC0C11543E5D40708F071C0C11584
:1012500082E5D80708F467C0CE018370992721E0A2
:1012600030E002C0220F331F8A95E2F7C695C6957B
:1012700080E2C89FE001112452C0C11599E5D90749
:10128000A8F4C11528E5D20708F06BC0C11536E5F2
:10129000D30708F06FCF8C2F0E940208C82FD0E030
:1012A000DC2FCC27CC27DF71D0623FCFC1154AE5B8
:1012B000D40708F45BC0CE0190568115904208F027
:1012C00059CF8D2F8F710E94020890E0982F8827A8
:1012D00088279F719C012C2BE901E6CFC55AD0E0ED
:1012E000CB5DDE4FC881D0E0D0641FCFCE01E4E0FB
:1012F00096958795EA95E1F783702C2F269526958C
:10130000237040E2249F90011124382B8C2F83708E
:10131000C1E0D0E002C0CC0FDD1F8A95E2F7C22BFE
:10132000D32BDC6802CFDC2FCC27C16FD06AFDCE77
:10133000CE018370992721E030E002C0220F331FD5
:101340008A95E2F7C695C69590E2C99FE0011124FF
:10135000C22BD32BDA68E9CEDC2FCC27C46FD06A3E
:10136000E4CEDC2FCC27C06FD06ADFCE8C2F8F70FD
:101370000E94020834E0D695C7953A95E1F7CF7000
:101380009C2FEC01D069D1CEC9E3D0E0CECEC2EE25
:10139000D0E0CBCEC6EED0E0C8CE80910F02811156
:1013A00010920F020895809590910E0298239093C9
:1013B0000E02089580910E0290910D02892B90915A
:1013C0000C02892B8093AE0190910F02992391F02A
:1013D000892B8093AE0120E080EB91E0FC013191FC
:1013E000CF0131112F5FF1E0863B9F07B9F7211143
:1013F0000E94CD09E0917D02F0917E02309731F09C
:101400000280F381E02D8EEA91E0099408958091A5
:101410000A029091D901981301C008958F5F8770D7
:10142000FACF2EE0929F800D1124982F9770869509
:101430008695869523E0829FF0011124E254FE4FA9
:1014400050E040E080E0219130E0092E02C0369566
:1014500027950A94E2F721703327042E01C0220F4A
:101460000A94EAF7822B4F5F5F4F4330510559F7DB
:1014700008952EE0929F800D1124982F977041E0DF
:1014800001C0440F9A95EAF786958695869593E074
:10149000899FF0011124E254FE4F90E080E070E05B
:1014A0005191DF0111979B01082E02C036952795B7
:1014B0000A94E2F7217021952527242325272C93D0
:1014C00001968330910561F7089590E080E00E94D5
:1014D000840590E080E00E946E0510920D0210924B
:1014E0000C020E94DA0986E0E8E3F2E0DF011D92D7
:1014F0008A95E9F71092320210923102109233026B
:101500000C94D006809310020C94650A882321F075
:101510000E94D3090C94DA090895882339F0909138
:101520000E02982B90930E020C94DA0908958823EA
:10153000B1F19CEF980F913A70F4E0EBF1E09191EA
:10154000891303C0DF0111971C9291E0E63BF90774
:10155000B1F70C94DA0990E2980F983050F4877044
:1015600091E001C0990F8A95EAF7892F0E94D3096B
:10157000F0CF9BE5980F933020F490E080E00C943E
:10158000840598E5980F973120F490E080E00C9462
:101590006E05803F20F00E94EB060C94D006089563
:1015A000CF93C82F882309F456C08CEF8C0F813A53
:1015B000F8F4E0EBF1E086EB91E0DF012D91C2174A
:1015C00059F08A179B07D1F76C2F8EEA91E00E94A1
:1015D0005405CF910C94DA092191C21303C0DF01A5
:1015E00011971C928E179F07B9F70E94DA09ECCF6A
:1015F00080E28C0F883068F4C77021E030E001C0D1
:10160000220FCA95EAF780910E02822B80930E0278
:10161000E0CFEBE5EC0FE33040F4F0E0EB5DFE4FA4
:10162000808190E0CF910C948405E8E5EC0FE731E0
:1016300050F4F0E0EE0FFF1FE85DFE4F80819181D6
:10164000CF910C946E05C03F30F08C2F0E94A607FE
:10165000CF910C94D006CF910895982F92959F70BA
:1016600011F0892F94E0282F2695269511F09E5F82
:10167000822F869509F09F5F892F0895CF93C82FF9
:101680000E942D0B813011F0823031F481E0809383
:10169000BC018C2FCF9108951092BC01FACF0E940B
:1016A0003E0B8093A0020C94650A8091A002982FB3
:1016B0009670963019F488600C944F0B877FFCCF9E
:1016C00021E030E001C0220F8A95EAF72095809151
:1016D000A00282230C944F0B90910B0280958923DA
:1016E00080930B02282F277091F4282F082E000CCE
:1016F000330B9217130659F09091120292FD07C016
:101700008595859585950E94600B10920B02089532
:1017100021E030E001C0220F8A95EAF78091A00213
:10172000822B0C944F0B80938602709388026093F7
:101730008702809196028430F9F48093E9008FEF5C
:101740009091E800815095FD06C095ED9A95F1F7CE
:1017500000008111F5CF8091E80085FF0DC050E0B9
:1017600040E063E070E086E892E00E94EA03809146
:10177000E8008E778093E8000895BC0184E00C9423
:10178000930BBC0183E00C94930B9C0184E0809349
:10179000E9009FEF8091E800915085FD06C085ED3E
:1017A0008A95F1F700009111F5CF8091E80085FF4F
:1017B0000CC050E040E066E070E0C9010E94EA031E
:1017C0008091E8008E778093E8000895CF93DF93AF
:1017D000EC0181E08093E9008FEF9091E800815067
:1017E00095FD06C095ED9A95F1F700008111F5CFB2
:1017F0008091E80085FF14C050E040E068E070E0B0
:10180000CE010E94EA038091E8008E778093E80081
:1018100088E0FE01ACE8B2E001900D928A95E1F714
:10182000DF91CF9108958091760280FD0AC0E5E5B1
:10183000F2E0118210821282339652E0E637F50709
:10184000C1F7539A3BB1377F2BB128604FB7F8945B
:1018500085E592E0FC015191CF0168E02BB90000D1
:1018600000C057FF3BB9550F000000C000C000C0CA
:101870003BB900C06A9591F7F2E086379F0751F7B0
:101880004FBF8FE594E00197F1F700C00000089585
:10189000EF92FF920F931F93CF93DF938C01C5E5D7
:1018A000D2E0F12CE12CF8019481609178028091D2
:1018B0007702F5E0EF16F10414F5992311F1409148
:1018C0007902493708F048E79E010E94D0052FEFC2
:1018D000E21AF20A23968BE0E816F10421F70E943F
:1018E000130CF801848190E001968170992784831C
:1018F000DF91CF911F910F91FF90EF900895992361
:10190000F1F29E0140E0E1CF8F929F92AF92BF92A1
:10191000CF92DF92EF92FF920F931F93CF93DF93BB
:10192000EC014C81042F10E09801D8010E94772A25
:101930009B01AC010E948D2A4B015C01E0E2F0E0CA
:10194000E01BF10BA5E5B0E0AC019B010E948D2AE4
:101950006B017C019F01DF010E946F2A9B01AC019A
:101960000E94982A9B01AC01280D391D4A1D5B1D60
:10197000C701B6010E94402AF22E822F90E039E280
:101980003F1508F43EC043E0249F90011124359593
:101990002795122F109595E5C92E92E0D92E00E0DB
:1019A00085E5E82EEF188E2D01FD8F2D412F19377B
:1019B00008F048E79601609178020E94D0050F5F19
:1019C00053E0C50ED11C0B3071F70E94130C9C81A3
:1019D00081E0992319F0903219F48FEF809323015D
:1019E00080912301890F8C83DF91CF911F910F91FB
:1019F000FF90EF90DF90CF90BF90AF909F908F902F
:101A0000089525E530E0A901481B590BCA019A0148
:101A1000220F331F280F391F37FFB9CF2F5F3F4FDA
:101A2000B6CF0F931F93CF93DF93C5E5D2E0FE01AE
:101A3000118210821282339682E0E637F807C1F7EE
:101A400010E000E080915302082E000C990B08175B
:101A50001907A4F180912201082E000C990B801720
:101A6000910764F140917902493708F048E79E01F7
:101A700060917802809177020E94D0050F5F1F4F1E
:101A800023960B301105F1F60E94130C8091210171
:101A900090915302980F9093530220912201280FA6
:101AA00020932201121614F49A301CF08195809331
:101AB0002101DF91CF911F910F9108951982188212
:101AC0001A82DCCFBF92CF92DF92EF92FF920F93F8
:101AD0001F93CF93DF93FC018281DD24DA9480FD94
:101AE00002C0DD24D39405E512E0D0E0C0E02BE095
:101AF000B22EF80111821082128294E0E92EF12CAC
:101B0000C12C809152028C0D8C300CF440C06B2D96
:101B10000E940A2A892F082E000C990B8C179D070A
:101B2000A9F4809179028E9DA0018F9D500D112402
:101B30005595479555954795493708F048E79801D9
:101B400060917802809177020E94D005CD0CF1E07F
:101B5000EF1AF108B1F621960D5F1F4FCB30D1057A
:101B600041F60E94130C8091520291E0D91215C0E7
:101B7000811111C08AE080935202DF91CF911F91B1
:101B80000F91FF90EF90DF90CF90BF90089587FF67
:101B9000C2CF855FC0CF8150EECF90E00196BE01ED
:101BA0000E942C2AE8CFEF92FF921F93CF93DF93EE
:101BB000EC0185E5E82E82E0F82E10E040917902F4
:101BC000493708F048E78C81970160917802810FCE
:101BD0000E94D005195E83E0E80EF11C1D3F71F7ED
:101BE0000E94130C9A818C8190FF08C08F5F8C83B8
:101BF000DF91CF911F91FF90EF9008958150F7CF23
:101C00009091760290FF0CC0E5E5F2E0818360835D
:101C10004283339692E0E637F907C1F70C94130C30
:101C200008950F931F93CF93DF9300D00F92CDB7FA
:101C3000DEB78C018091540281110AC09E012F5F92
:101C40003F4F48E76FEF0E94D0058A81809354028E
:101C5000F8016481613069F08091540240E06623AC
:101C600061F040E0623011F44091540280E060E0A5
:101C700004C06091540240E080E00E94000EF80130
:101C8000848190E0019663E070E00E942C2A8483B6
:101C90000F900F900F90DF91CF911F910F910895AA
:101CA000CF93DF9300D00F92CDB7DEB7909176023D
:101CB00090FF0DC0493708F048E79E012F5F3F4F66
:101CC0000E94D0054B8169818A810E94000E0F908D
:101CD0000F900F90DF91CF910895CF93DF93EC0198
:101CE000E6E7F2E0438162818C810E94500E8C8194
:101CF0008F5F8C83DF91CF910895CF93DF93EC01B9
:101D0000EC81F0E0E05BFC4F4491E6E7F2E06281B9
:101D100081810E94500E8C818F5F8C83DF91CF91E7
:101D200008951F93CF93DF93182FD0E0C0E089333D
:101D300011F4C0E5D0E0812F0E94D00A209731F441
:101D4000812FDF91CF911F910C94970A8FE99FE02B
:101D50000197F1F700C000002197F0CF0F931F9378
:101D6000CF93DF93C62FD42F022FFC0182818823CB
:101D7000A1F06093A3020E9448059093A202809371
:101D8000A102C77081E001C0880FCA95EAF7DF9110
:101D9000CF911F910F910C948D0A8091A30268132B
:101DA00035C08091A1029091A2020E943905883C21
:101DB000910560F510E21D0FCD17B9F080E28C0F90
:101DC000883040F4C77081E001C0880FCA95EAF7F7
:101DD0000E94860A183048F481E09D2F977001C058
:101DE000880F9A95EAF70E948D0A802F0E94910E23
:101DF000183098F4D77081E001C0880FDA95EAF7BF
:101E0000DF91CF911F910F910C94860AC77081E0EA
:101E100001C0880FCA95EAF7F3CFDF91CF911F91E8
:101E20000F910895CF93DF93FA016230710519F491
:101E30002230310539F08FEF818381E090E0DF912E
:101E4000CF910895499B33C0599A519A47E050E089
:101E50005898EC01288130E0042E02C03595279572
:101E60000A94E2F720FF25C0599A589A4150510927
:101E700078F72AE12A95F1F700C05198599A118212
:101E800087E090E05898589A29B121FBAA27A0F939
:101E9000B0E0AD01082E01C0440F0A94EAF7218199
:101EA000242B2183019770F790E080E0C8CF5998E8
:101EB000CCCF5998DACFCF93DF93C7EED1E060E073
:101EC000CE010E94C02A2196C11584E0D807B9F737
:101ED000DF91CF9108956F927F928F929F92AF92F0
:101EE000BF92CF92DF92EF92FF920F931F93CF9307
:101EF000DF9380E5C82E84E0D82E93EBE92EF12CF9
:101F0000E701C057D10936011BC0F50185909490B7
:101F1000692DC8010E94C02A682DC80101960E943F
:101F2000C02A82E0A80EB11C0E5F1F4FC017D10758
:101F300061F78CE1680E711C6C96CE15DF0529F0F7
:101F40008E010C5111095301E0CF7E0180E7E80EAC
:101F5000F11C80E7C80ED11C83E7E81682E0F80682
:101F600079F6DF91CF911F910F91FF90EF90DF9065
:101F7000CF90BF90AF909F908F907F906F9008957B
:101F8000CF93C82F6FEF811161E283E290E00E944E
:101F9000C02A6FEFC11162E184E290E00E94C02A82
:101FA0006FEFC11165E285E290E0CF910C94C02AF9
:101FB00080E00E94C00F60E086E290E00E94C02AAC
:101FC0000E946B0F0E945B0F81E00C94C00FCF93B7
:101FD000C0911202C2FB992790F9981799F080FBE3
:101FE000C2F9C09312026091110284E090E00E9455
:101FF000C02A6C2F82E290E00E94C02A82E0CF913A
:102000000C946C0BCF9108950F931F93CF93DF9394
:10201000C42FD0E0CC0FDD1F2CE1629FC00DD11D7D
:10202000112430E7839FC00DD11D1124CE01879666
:102030000E94AC2A082F10E0102F0027CE018896AE
:102040000E94AC2A9801282BC901DF91CF911F91E2
:102050000F910895462F843038F4743028F46E3090
:1020600018F4672F0C94041090E080E00895CF924C
:10207000DF92FF920F931F93CF93DF936C01009138
:10208000A00280911002082BC7E0D0E010E0FC2EE7
:10209000C8010C2E02C0959587950A94E2F780FD41
:1020A0000CC02197A0F7F12C8F2DDF91CF911F91BC
:1020B0000F91FF90DF90CF900895B6018C2F0E9472
:1020C0002A100E944508019761F3EECFCF93DF936A
:1020D000EC010E943710BE010E942A10DF91CF91BF
:1020E0000C944508FC01808191810E946610292F83
:1020F0002F7092959F7092509E3078F4E92FF0E007
:10210000E255F34D0C94622A803F19F020F4883E8A
:1021100020F481E00895843FE1F380E00895883E53
:10212000C0F3813FD1F7F5CF822F869586958695AE
:10213000089583E290E00E94AC2A813289F484E21F
:1021400090E00E94AC2A823159F485E290E00E942E
:10215000AC2A91E0853209F090E0892F81700895D2
:1021600080E0FCCFCF9384E090E00E94AC2AC82F9F
:1021700082E290E00E94AC2A982F8C2FCF91089594
:10218000CF92DF92EF92FF926B017C010E94BA0521
:10219000B701A60188E090E0FF90EF90DF90CF902C
:1021A0000C94D22A5F926F927F928F929F92AF92FD
:1021B000BF92CF92DF92EF92FF920F931F93CF9334
:1021C000DF9300D00F92CDB7DEB7082F762E142FF5
:1021D000622E9091760290FF2DC0E92FE695AE2FEA
:1021E000B0E0A858BE4F8C91809350029E7F9230F1
:1021F000A1F5493708F048E79E012F5F3F4F672D53
:10220000802F0E94D0054B8169818A810E94000E37
:10221000009377027092780210937902662051F051
:1022200060917602709177028091780290917902A4
:102230000E94C0100F900F900F90DF91CF911F91CF
:102240000F91FF90EF90DF90CF90BF90AF909F9055
:102250008F907F906F905F900895823019F4109165
:102260007902D6CF863019F400917702D1CF893028
:10227000D9F3893169F6E9518E2F8170582EE69590
:10228000F0E0E55BFC4FA590B490BB2485E5E82E1B
:1022900082E0F82ED12CC12C9BE0892E912CC60116
:1022A000B4010E94182A802F511016C0860F412FAA
:1022B000193708F048E79701672D0E94D005CA0C2E
:1022C000DB1C83E0E80EF11C86E7E81682E0F806E6
:1022D00031F70E94130C9CCF861BE9CFE6E7F2E0B2
:1022E000438121E1421B08F440E021E062818181C9
:1022F0000C94D210E6E7F2E0438121E1420F08F4AA
:102300004FEF21E0628181810C94D210E6E7F2E088
:10231000628121E1621B08F460E021E04381818158
:102320000C94D210E6E7F2E0628121E1620F08F43A
:102330006FEF21E0438181810C94D210E6E7F2E057
:10234000818121E0438162818A500C94D210E6E7BA
:10235000F2E0818121E043816281865F0C94D2109A
:1023600080917A02882319F0815080937A026091DB
:1023700076027091770280917802909179020C94A4
:10238000C01080917A02833018F48F5F80937A02B4
:102390006091760270917702809178029091790233
:1023A0000C94C0109091760290FF3DC09170811105
:1023B00029C0926090937602662351F06091760274
:1023C0007091770280917802909179020E94C010FA
:1023D00060917602669570E04BE050E086E191E016
:1023E0000E94922C892BA9F01092510281E08093D7
:1023F0004D0220E04091790260917802809177024D
:102400000C94D210853210F09864D4CF880F982B9A
:10241000D1CF81E0809351020E94480590934B02F6
:1024200080934A02E3CF0895809176028695815089
:1024300009F484E261E00C94D211809176028695D1
:102440008F5F853208F081E061E00C94D2119091A9
:10245000760290FF07C09695981720F0961710F413
:102460000C941D1261E00C94D211E6E7F2E083E0D7
:10247000808311828FEF828388E783831482608157
:102480007181828193810C94C010CF93DF93CDB77B
:10249000DEB76E970FB6F894DEBF0FBECDBF40918A
:1024A000440250914502609146027091470280912A
:1024B0004802909149020E9466062093440230939C
:1024C000450240934602509347026093480270933E
:1024D000490286E0E4E4F2E0DE01179601900D92F5
:1024E0008A95E1F786E0FE013796DE0111960190AC
:1024F0000D928A95E1F786E0FE013196DE011D9688
:1025000001900D928A95E1F786E0FE013D96DE018D
:10251000539601900D928A95E1F786E0FE0173963D
:10252000DE01119601900D928A95E1F786E0FE0199
:102530003196A4E4B2E001900D928A95E1F786E02D
:10254000E8E3F2E0DE01599601900D928A95E1F7F9
:10255000809145029A8D892B8093450286E0E4E4C0
:10256000F2E0DE01179601900D928A95E1F786E080
:10257000EEE3F2E0DE01119601900D928A95E1F70B
:1025800046E050E0BE016F5F7F4FCE0107960E948C
:102590009F2C892B21F084E492E00E949A051092EE
:1025A000460210924702109248021092490286E0B9
:1025B000E4E4F2E0AEE3B2E001900D928A95E1F737
:1025C0006E960FB6F894DEBF0FBECDBFDF91CF91F0
:1025D000089569EE7EEF90E080E00E94DE2A60E0E0
:1025E00082E090E00E94C02A60E083E090E00E94D8
:1025F000C02A1092100260E084E090E00E94C02A9D
:1026000060E082E290E00E94C02A60E085E090E015
:102610000E94C02A60E086E090E00E94C02A6FEF2E
:1026200087E090E00E94C02A40E050E0BA0188E0D4
:1026300090E00E94D22A60E08DE090E00E94C02AE3
:1026400040E050E0BA0188E190E00E94D22A60E0C8
:1026500087E190E00E94C02A40E050E0BA018CE19E
:1026600090E00E94D22A70E060E080E290E00E9458
:10267000DE2A40E050E0BA0188E190E00E94D22AD0
:1026800080E00E94C00F0E94D80F40E050E0BA01E5
:102690008FE090E00E94D22A40E050E0BA0183E14E
:1026A00090E00C94D22A90E080E00E94BA2A893E01
:1026B0009E4F11F40C94991080E0089510920E0230
:1026C000E0EBF1E086E0DF011D928A95E9F70C94DA
:1026D000650A1F93CF93DF93CDB7DEB7AA970FB6E6
:1026E000F894DEBF0FBECDBF88E992E02091F100E3
:1026F000DC012D93CD01B2E0803A9B07B9F78091C0
:102700009902833009F472C0B8F4813009F449C0E9
:10271000823009F4B3C08091E80083FF8BC28091BE
:102720009802909199029A3008F084C2E92FF0E063
:10273000E454F34D0C94622A8A3009F48EC08B3035
:1027400009F471C0893039F780919802813219F704
:1027500080919C0290919D02009711F00297D9F60A
:102760008091E800877F8093E8008091E80082FFF5
:1027700038C09091F3008091F200029731F480917B
:10278000F100813011F0863021F48091F1008093C6
:102790008B028091E8008B778093E8000E941404FC
:1027A000BACF80919802813A09F0B5CF8091E800C4
:1027B000877F8093E80080919C0290919D02892BF5
:1027C00061F468E08CE892E070E00E94C6048091B9
:1027D000E8008B778093E8009ECF60E090E080E097
:1027E000F3CF809196028111C0CF95CF809198024E
:1027F000813A09F090CF80919C0290919D02892BA3
:1028000009F089CF8091E800877F8093E80080916C
:10281000E80080FFFCCF809124018093F10080913B
:10282000E8008E77B9CF80919802813209F073CF9A
:1028300080919C0290919D02892B09F06CCF809130
:10284000E800877F8093E8000E94140480919A0238
:10285000809324010E945E135ECF809198028132A2
:1028600009F059CF8091E800877F8093E8000E94AB
:10287000140480919B0280938A024DCF809198022C
:10288000813A09F048CF8091E800877F8093E80083
:102890008091E80080FFFCCF80918A02BECF803813
:1028A00099F0823809F0C6C180919C028F70873000
:1028B00008F0C0C18093E9008091EB0085FB882778
:1028C00080F91092E90006C08091940290919502DF
:1028D000911182609091E800977F9093E800809337
:1028E000F1001092F1008091E8008E779FC188235B
:1028F00009F48DC1823009F09DC180919A02811145
:1029000090C180919C028F702FEF280F263008F025
:1029100091C18093E9002091EB0020FF82C19330A8
:1029200031F48091EB0080628093EB007AC190914A
:10293000EB0090619093EB0021E030E001C0220FAA
:102940008A95EAF72093EA001092EA008091EB0062
:102950008860EACF81116EC110919A021F77809131
:10296000E3008078812B8093E3008091E800877FEB
:102970008093E8000E9414048091E80080FFFCCF5F
:102980008091E30080688093E30082E0111183E08E
:10299000809396024FC18058823008F04BC120913D
:1029A0009A0230919B022C3DE3E03E07A1F583E0C3
:1029B0008A838AE289834FB7F894DE01139620E078
:1029C0003EE051E2E32FF0E050935700E49120FF06
:1029D00003C0E295EF703F5FEF708E2F90E0EA301A
:1029E000C0F0C7968D939D932F5F243159F74FBF49
:1029F0008091E800877F8093E8006AE270E0CE0172
:102A000001960E94C6048091E8008B778093E800CD
:102A100011C1C096E7CF80919C0290919D02432FF7
:102A200055274330510509F44AC078F54130510526
:102A300009F47AC08BE590E0E0E1F6E04230510520
:102A400009F0F8C02091E800277F2093E80020914A
:102A50009E0230919F028217930708F49C0140E088
:102A60002115310509F065C0411163C08091E8006E
:102A700082FDC9CF80919602882329F2853019F210
:102A80008091E80083FFF2CFBECF4132510509F4B7
:102A90003CC04232510509F0CDC08330910508F0A9
:102AA000C9C0FC01EE0FFF1FE056FE4F0190F08100
:102AB000E02D83569E4FDC018C9190E01AC03327A5
:102AC00021303105D1F02115310561F02230310579
:102AD00009F0B0C0EDE7F6E0E4918E2F90E0EDE76D
:102AE000F6E007C0EDE9F6E0E4918E2F90E0EDE925
:102AF000F6E0009709F49EC0A5CFEFE8F6E0E49178
:102B00008E2F90E0EFE8F6E0F4CF8330910508F0E7
:102B100091C0880F991FFC01EA55FE4F0190F0818A
:102B2000E02D89E090E08ECF82E190E0EBE6F6E0E8
:102B300089CF80919602882309F465CF853009F406
:102B400062CF8091E80083FD5ECF8091E80082FD36
:102B50008DCF8091E80080FF83CF9091F30080912A
:102B6000F2002115310519F08830910550F041E04F
:102B7000089709F040E08091E8008E778093E800A4
:102B80006FCF44914093F100319621503109019665
:102B9000E8CF803809F04EC08091E800877F8093AD
:102BA000E800809197028093F1009DCE811142C090
:102BB00010919A021230F0F58091E800877F80939F
:102BC000E800109397020E941404112311F084E08E
:102BD00005C08091E30087FDFACF81E080939602E3
:102BE00042E061EC81E00E94330442E261EC84E067
:102BF0000E94330442E261EC82E00E94330442E22C
:102C000060EC83E00E9433048091960213C08091AF
:102C10009A02813079F481E0933009F080E080936A
:102C200095021092E9008091E800877F8093E80088
:102C30000E9414048091E80083FF0AC08091E8009C
:102C4000877F8093E8008091EB0080628093EB00A7
:102C5000AA960FB6F894DEBF0FBECDBFDF91CF911D
:102C60001F9108953F924F925F926F927F928F9241
:102C70009F92AF92BF92CF92DF92EF92FF920F930B
:102C80001F93CF93DF9300D000D000D0CDB7DEB735
:102C90008C01FC0183819481892B31F080819181A9
:102CA00089238F3F09F017C626960FB6F894DEBF2A
:102CB0000FBECDBFDF91CF911F910F91FF90EF908D
:102CC000DF90CF90BF90AF909F908F907F906F904C
:102CD0005F904F903F9008950E943710F82E682F14
:102CE00089819A810E94390A69817A818F2D0E9497
:102CF0002A107C01F801D280DD2009F4E1C582515F
:102D00009F45409708F0A1C58FEF93E00E94AC2A41
:102D1000FEEEEF0E57EE852E992493948823A9F1A9
:102D200080910B02877009F4BFCFF801828188235C
:102D300009F4BACF8091120282FDB6CF82E02696C6
:102D40000FB6F894DEBF0FBECDBFDF91CF911F91BC
:102D50000F91FF90EF90DF90CF90BF90AF909F903A
:102D60008F907F906F905F904F903F900C946C0B82
:102D7000811424E09206A1F2C4010E94AC2A8111C0
:102D800001C0EA943FEF831A930AE110F1CF1C824D
:102D90001B82442443944AE0342E74018FEFE81AD6
:102DA000F80AC4010E94AC2A89831A82882309F494
:102DB000B7CF9FEF980F933000F58A83498292E056
:102DC000890E911CC7010E94AC2A8B83882309F4C9
:102DD000A7CFFE0131967F01F70120812223E9F27E
:102DE000213009F049C091818281913041F4F2E0B3
:102DF000EF0EF11C0E94910E09C04701EACF9230FC
:102E000049F422E0E20EF11C0E94D00A3FEFE31ADF
:102E1000F30AE2CF933031F432E0E30EF11C0E946A
:102E2000970AF4CF943021F08FEFE81AF80AEECF2A
:102E300092E0E90EF11C30E020E0B7016F5F7F4FB8
:102E4000F70141818053990B8A30910550F0215050
:102E50003109E0F28FE99FE00197F1F700C000002F
:102E6000F6CF329EF001339EF00D11249C012E0FFF
:102E70003F1F842F7B01E1CFE22FF0E0E754FE4FAC
:102E80005490822F86958695869590E0FC01E755B3
:102E9000FE4F64902770712C022E02C075946794C7
:102EA0000A94E2F7E1E06E227724FC01E756FE4F38
:102EB000A490B12C022E02C0B594A7940A94E2F714
:102EC000F1E0AF22BB24FC01E757FE4FC490D12CA8
:102ED00002C0D594C7942A95E2F721E0C222DD24EE
:102EE0006114710419F081EE0E94D00AA114B1049A
:102EF00019F086EE0E94D00A852D0E94910EAB2813
:102F000019F086EE0E94970A672819F081EE0E9458
:102F1000970ACD2809F47ACF8CE26CCF81E00E9429
:102F2000880B0E94550BFCCE81E00E94600BF9CF0C
:102F300082E0F5CFF8EAEF16FDE5FF0681F129EA18
:102F4000E2162DE5F20609F09AC4DD20B1F181E028
:102F50008093BC01E5CE0E94AF0629834B835C833E
:102F60006D837E83532FDD2051F051605A83498158
:102F70006B817C818D819E810E949006D1CE5E7F87
:102F8000F5CF0E94AF0629834B835C836D837E83DC
:102F9000532FDD2011F05260E9CF5D7FE7CF0E9413
:102FA000AF0629834B835C836D837E83532FDD20A3
:102FB00011F05460DBCF5B7FD9CF1092BC01B0CE53
:102FC00025EFE2162CE5F20609F46AC008F464C0A5
:102FD00027E245EE66EE86EFE8168CE5F80609F482
:102FE0006BC4DD2009F488C41092A30293E0E916B3
:102FF0009DE5F90608F05BC0EAEFEE16ECE5FE068B
:1030000030F4C70182509C45449708F056C00E9496
:10301000B210909312028093110220E1E2162CE587
:10302000F20609F435C108F09FC088E0E8168CE587
:10303000F80609F41BC108F06BC0E4E0EE16ECE5FD
:10304000FE0609F401C108F050C022E0E2162CE5AA
:10305000F20609F4F3C080911102826033E0E316B6
:103060003CE5F30609F4EDC060911102F090120204
:1030700084E090E00E94C02A6F2D82E290E00E94DE
:10308000C02A0E945E134CCE27E245EE65EE14C4C2
:1030900026E241EE60EE10C427E245EE64EE0CC479
:1030A00026E241EE62EE08C428E241E0EFCFF1E60D
:1030B000EF16FDE5FF0609F4AACF80910E0296E116
:1030C000E9169CE5F90609F030C48A7A91E009F422
:1030D00090E09093BD0169E2811165E38EEA91E091
:1030E0000E9454050E94DA091BCE86E0E8168CE5A2
:1030F000F80609F4B7C080911102886097E0E916DC
:103100009CE5F90608F49DC080911102806299C087
:10311000809111028D7FECE0EE16ECE5FE0609F4DD
:1031200090C078F4809111028C602AE0E2162CE5C0
:10313000F20609F486C008F49DC0809111028E7FCA
:1031400080C08EE0E8168CE5F80609F499C08091FD
:1031500011028B7F9FE0E9169CE5F90608F471C027
:10316000809111028F7E6DC0ECEFEE16ECE5FE064D
:1031700009F48AC0A0F524E1E2162CE5F20609F470
:103180009BC098F482E1E8168CE5F80609F484C047
:10319000809111028F7B93E1E9169CE5F90608F412
:1031A00050C080911102837F4CC0EAEFEE16ECE52F
:1031B000FE0609F44DC008F051C025E1E2162CE5E9
:1031C000F20609F051CF8091110282FB992790F904
:1031D00021E0922790FB82F990FB83F932C0E11441
:1031E0003DE5F30609F45EC0A0F48091120283600D
:1031F0009EEFE9169CE5F90671F1809112028D7F30
:10320000EFEFEE16ECE5FE0630F1809112028C7FB6
:1032100022C0F2E0EF16FDE5FF0609F45CC008F4F9
:1032200054C031E6E3163DE5F30609F01DCF909159
:103230001102892F8F7E94FF806103C0809111025B
:1032400081608093110210CF809111028460F9CFC8
:103250008091120281608093120206CF8091120247
:103260008260F9CF809111028061EBCF80911102D1
:103270008064E7CF0E945E13809111028068E1CFE5
:1032800080911102877FDDCF809112028E7FE3CF84
:10329000809111028F7DD5CF0E945E138091110223
:1032A0008F77CFCF80911202982F909591708E7F5B
:1032B000892B90FB81F9CFCF0E945E139091110270
:1032C000892F97FB87F98058BCCF61E08EE090E0B2
:1032D0000E94C02AC9CE60E0F9CF85E318C380916F
:1032E000760280FF1BC08E7F80937602609176020B
:1032F0007091770280917802909179020E94C010BB
:1033000010925102EFEFF0E722E0E150F040204050
:10331000E1F700C000000E94130C02CD8160809391
:10332000760261E086950E94D211FACC44E152E126
:103330006DE172E10E94B405F3CC4DE152E164E12C
:1033400072E1F8CF47EA51E16EE971E1F3CF46E867
:1033500051E162E971E1EECF4EE651E16AE771E1D8
:10336000E9CF4AE751E16EE671E1E4CF41EC51E18A
:1033700060EB71E1DFCF61E081E0D5CF65E082E015
:103380000E942712CDCC68E086E0FACF64E18FE09E
:10339000F7CF67E185E1F4CF62E289E1F1CF61E047
:1033A00083E2C1CFFBE5EF16FDE5FF0611F12CE549
:1033B000E2162DE5F20609F0EAC28091120282FBC4
:1033C000882780F991E089270E94E70FE0C20E94D8
:1033D0005E133FEF84E39CE0315080409040E1F782
:1033E00000C000000E9428050E94E91299CC81E0EB
:1033F000EBCF80E0E9CFC7010E94110AD82ED6C2D8
:103400002F2D2F70C22E8F2D807F19F0C29490EF38
:10341000C922DD20B9F0CC2069F080E28E0D883021
:1034200010F0811009C080910E02C82AC0920E02CD
:103430000E94DA098E2D4DC080910D02C82AC092DB
:103440000D02F6CF8E2D0E94970ACC2009F443C0BE
:1034500080E28E0D883010F0811004C08C2D0E9407
:10346000D30906C0C09480910D02C822C0920D02FB
:103470000E94DA0930C03F2D3F70C32E8F2D807F10
:10348000803219F0C29480EFC822882089F081E050
:10349000881609F47FC0DD2009F489C0BB2009F437
:1034A0007FC0F801858180FFC5CF8F70858378C08C
:1034B0002091120222FF4BC0DD2009F442C0CC2033
:1034C00039F080910E02C82AC0920E020E94DA09D9
:1034D00080E00E94D00AE92DE850FF0B349710F4E9
:1034E0000E94A805AA2009F4DFCB80910B0280FD81
:1034F000DBCBF80112828595859585950E94880B16
:10350000C8010E94321680910B028595859585959C
:1035100026960FB6F894DEBF0FBECDBFDF91CF91D8
:103520001F910F91FF90EF90DF90CF90BF90AF90E1
:103530009F908F907F906F905F904F903F900C94F2
:10354000600B80E00E94970ACC2029F287CFDD2013
:10355000A1F090910F028C2D892BB11003C00E9415
:103560008D0AB9CFE1E0BE12FACF22FDB4CF981791
:1035700009F4B1CF80930F02AECFB11006C00E9404
:10358000CD098C2D0E94860AA6CFF1E0BF1609F462
:10359000A2CFF5CFDD2031F025E02B1508F49BCF2D
:1035A0008C2DDDCF34E03B1508F495CFEACFBB205E
:1035B00041F3F9E38F1242C12FEF37EE83E0215040
:1035C00030408040E1F700C0000038C18F2D869563
:1035D0008695837061F0813009F07DCFC7019370CB
:1035E000D11002C090E080E00E946E0574CFC70148
:1035F0009370D11002C090E080E00E9484056BCFF0
:103600008E2DDD2031F10E94A607EE2DE45FFF0B29
:10361000E530F10508F521E030E0790101C0EE0C5C
:10362000EA95EAF70E94AF0629834B835C836D839A
:103630007E83532F5E29D11003C05E2D50955323F6
:103640005A8349816B817C818D819E810E94900685
:1036500042CF0E94EB06D9CF0E94D0063CCF8F2DDF
:10366000837091F5D11037CF4E2D42954695477016
:10367000440F440F8E2D8F70042E01C0880F0A94C2
:10368000EAF72E2D2071E4FE07C02FE030E001C0E4
:10369000220F4A95EAF720953F2D369536953370DF
:1036A000323069F050F440911002313029F0822B11
:1036B00084230E94820A0FCF842B822BFACF282BDF
:1036C000809110028227F5CF8695DD2011F08F2D95
:1036D0008170882309F4FFCE4E2D429546954770A0
:1036E000440F440F8E2D8F70042E01C0880F0A9452
:1036F000EAF72E2D2071E4FE07C02FE030E001C074
:10370000220F4A95EAF720953F2D3695369533706E
:10371000323069F050F44091A002313029F0822B10
:1037200084230E944F0BD7CE842B822BFACF282BD9
:103730008091A0028227F5CFFF2DFF70FF2EDD20A4
:1037400029F08F2F0E94880B8E2D09CF8E2D0E947D
:10375000860A8F2D0E94600BBECE8E2D22EF821620
:10376000B1F1281570F030EF8316D1F091EF891682
:1037700091F0DD2009F45DC0B1105CCE8F2D8F710A
:103780002AC0E3EF8E1651F1F4EF8F12F2CF809141
:10379000120282FF2FC08F2D8F71DD20D9F21BC046
:1037A000DD2081F024E02B1508F495CE2F2D2F710C
:1037B00081E090E001C0880F2A95EAF79091A0027D
:1037C0008927AFCF35E03B1508F485CEEFCF8F2D9D
:1037D0008F71D110BFCF0E94880B7DCE80E0DD209D
:1037E00009F49FCF9F2D9F7181E001C0880F9A95AA
:1037F000EAF797CFDD2091F08F2D8F71F82E0E9480
:10380000880B8091120282FD07C0E8E0FE9EC00195
:103810001124836080930B028F2DDDCF81E00E9405
:103820006C0BF1E0FB1508F056CE82E00E946C0BA9
:1038300052CEBB2039F0893309F4BECE8E2D0E94C2
:10384000970A49CE8F2D8F7185CFF0E1EF16FFE5F6
:10385000FF0609F463CB21E1E2162FE5F20609F435
:1038600067CB87EAE8168DE5F80609F48ACB08F0FD
:1038700061CBE6EAEE16EDE5FE0609F46CCB33EF1C
:10388000E3163CE5F30609F403CC08F099CB98ED78
:10389000E9169CE5F90609F4F7CBE9EDEE16ECE53F
:1038A000FE0609F401CCF7EDEF16FCE5FF0609F082
:1038B00098CB26E241EE61EEC8010E94AE0E30CAFE
:1038C00080319F4509F430CB81E1E8168FE5F80699
:1038D00041F682E02ACB85E0DE01119601900D923F
:1038E0008A95E1F7F801228189819A812111F4C931
:1038F0000E94110AF82EF8C9F6E1EF16FCE5FF0662
:1039000009F045C08091BD018111E7CC89E2E0EB6F
:10391000F1E026EB31E09191891303C0DF011197AB
:103920001C922E173F07B9F7DDCB82722CECE21602
:103930002CE5F20609F41ACD08F0ABC096ECE916B6
:103940009CE5F90609F4FECC08F07AC0F3ECEF161A
:10395000FCE5FF0609F4EACC08F061C032ECE3169E
:103960003CE5F30609F4BBCC3AE5E3163DE5F30686
:1039700009F43DCD08F016CDE1149CE5F90609F4F3
:1039800026CDEEEDEE16ECE5FE0609F42DCDF801A0
:103990008281E080F180882309F42DCDC7010E9447
:1039A0003710D82E682FC7010E94390AB7018D2D14
:1039B0000E942A100E9445087C01882EF801D280BE
:1039C000B580B2943FE0B32280910B028770C1F0C2
:1039D000AD2CDD20B1F08F2D807F803421F080E28E
:1039E0008E0D883068F08091120282FD09C082E05D
:1039F0000E946C0B80910B028770AA24A394811102
:103A0000A12C9F2C92942FE09222FBE0F91508F450
:103A100062CDE92DF0E0EA53F34D0C94622A94EC68
:103A2000E9169CE5F90609F488CC4EE951E167EA0C
:103A300071E1E5ECEE16ECE5FE0609F47BCC94CFE3
:103A4000F9ECEF16FCE5FF0609F486CC88F437ECB8
:103A5000E3163CE5F30609F47ACC42E951E166E865
:103A600071E198ECE9169CE5F90609F463CC7CCF8A
:103A7000EAECEE16ECE5FE0609F473CC40EB51E1FE
:103A800061EC71E1FBECEF16FCE5FF0609F452CCAA
:103A90006BCF21EDE2162CE5F20609F477CCB8F4F1
:103AA0008EECE8168CE5F80609F468CC08F463CCD3
:103AB000EFECEE16ECE5FE0609F465CC6EE089E06D
:103AC000F0EDEF16FCE5FF0609F45ACC4DCF24EDDE
:103AD000E2162CE5F20609F45FCC78F482EDE816E4
:103AE0008CE5F80609F455CC61E088E193EDE91620
:103AF0009CE5F90609F417CC37CFE5EDEE16ECE5B9
:103B0000FE0609F44CCCFDE5EF16FF0609F408C9E2
:103B10002BCF1F93CF93DF938091D801807FA9F49F
:103B20008091D501882389F080910A02D091D90132
:103B30006091D3017091D401A091D601B091D701C9
:103B4000C62FC72316E0D81304C0DF91CF911F9171
:103B5000089590E0109711F0CF3F19F40196877007
:103B6000F2CF189F9001199F300D1124F901E652F0
:103B7000FE4F41814713F2CF40814613EFCF428180
:103B80004111ECCF438154814A1B5B0B483C5105EA
:103B900028F78091D8018F7080618093D801F90156
:103BA000E152FE4F80818F708061808383ED91E0D0
:103BB0000E943216DF91CF911F910C94070AAF92A9
:103BC000BF92CF92DF92EF92FF920F931F93CF930A
:103BD000DF93CDB7DEB761970FB6F894DEBF0FBEA7
:103BE000CDBF8C0185E0F801DE011D9601900D929C
:103BF0008A95E1F7F801E28083EDA82E81E0B82EE6
:103C00006091D6017091D7016115710509F422C147
:103C10009091D3014091D401892F84238F3F09F4DF
:103C200019C120813181C380D480F090D501F60183
:103C3000E61BF70BFF2009F4F4C08091D801582F40
:103C4000507FE83CF10508F0B7C0511177C0FE2C59
:103C5000431321C092131FC0E1101DC08F708061FB
:103C60008093D801C5010E9432168091D801F801D5
:103C700085838F2D61960FB6F894DEBF0FBECDBF42
:103C8000DF91CF911F910F91FF90EF90DF90CF9038
:103C9000BF90AF900895CD2829F0822F83238F3FC6
:103CA00009F0F3C080E0F82FF170DF2E80FF3CC0F8
:103CB00080910A024091D90156E0841315C02D87E6
:103CC0003E878D859E850E946610292F22952F7034
:103CD0002230F0F0243018F59F70F1F0F801958152
:103CE000907FD1F4D12C1EC090E0589FF001599FD5
:103CF000F00D1124E652FE4F6181361306C060813B
:103D0000261303C06281E6120FC001968770D5CFDB
:103D10009F7011F0882331F3805E883018F3C8015A
:103D20000E943216FD2CA5CFEE2009F4A2CF80917F
:103D3000D80181608093D801F12C9BCF431312C02E
:103D4000921310C0E1100EC0F8018583C8010E94D3
:103D5000321686E0F801A3EDB1E001900D928A954C
:103D6000E1F787CFC8010E947210882309F1EE2085
:103D7000F9F08091D801803270F02091D301309118
:103D8000D40138872F831986DB86CA868C87CE01BB
:103D900007960E94321686E0F801A3EDB1E001908B
:103DA0000D928A95E1F70E94891DFF24F39461CF5B
:103DB000C8010E943216F9CF51110AC083ED91E07B
:103DC0000E94321686E0F50111928A95E9F7B4CF88
:103DD00043130FC092130DC0E1100BC0F80185838F
:103DE000C8010E94321686E0F50111928A95E9F722
:103DF00040CFC8010E9472108823D1F2EE20C1F298
:103E00008091D801803238F22091D3013091D401D1
:103E10003A8329831B82DD82CC828E83CE01019678
:103E2000B8CFE83CF105F8F6FE2CEE2009F243137A
:103E300003C0921709F48DCFC8010E94721081113E
:103E4000AACF8091D80181608093D801C8010E94D7
:103E500032160FCFEE2009F4ABCFC8010E947210CA
:103E6000F82E882309F4A4CF86E0F801A3EDB1E091
:103E700001900D928A95E1F78091D3019091D40140
:103E80000E9466100E94891DF4CE81E08E250BCF22
:103E90001F93CF93DF93CDB7DEB767970FB6F89434
:103EA000DEBF0FBECDBF4B8B5C8B6D8B7E8B8F8B44
:103EB000611110920D021A8A198A85E0FE0173962B
:103EC000DE011D9601900D928A95E1F786E0FE01D4
:103ED0003D96DE01179601900D928A95E1F7CE018D
:103EE00007960E94DF1D882389F016E080910A0260
:103EF0009091D901891349C067960FB6F894DEBF37
:103F00000FBECDBFDF91CF911F91089586E0FE01D6
:103F10003796DE01119601900D928A95E1F78A8518
:103F20009B85892B11F38F81988589238F3FE9F237
:103F30002091D90130E0C9010196877099274091FD
:103F40000A024817190671F40E945E131092D901F3
:103F500010920A0286E0E3EDF1E0DF011D928A95FE
:103F6000E9F7C3CF96E0929FD001939FB00D112443
:103F7000A652BE4FFE01319601900D929A95E1F73F
:103F80008093D9010E94070AB0CF819FC0011124FC
:103F900086529E4F0E94DF1D882309F4ADCF809189
:103FA0000A0290E001968770992780930A029ECFBB
:103FB0002F923F924F925F926F927F928F929F9239
:103FC000AF92BF92CF92DF92EF92FF920F931F9327
:103FD000CF93DF93CDB7DEB72A970FB6F894DEBF45
:103FE0000FBECDBF4BE1842E42E0942E46E551E05A
:103FF000E3E1F2E010E061E070E03F0140805180D9
:10400000DA018D91AD01A82FA295AF70B0E0919625
:104010002C9191978F707B0102C0EE0CFF1C8A954A
:10402000E2F7C701922F982B91969C9391979296C5
:104030009C9192978095892392968C9320EA2A9559
:10404000F1F73AE5232E31E0332E610190E080E074
:10405000D6010D916D01202F22952F7030E0D901EE
:104060009096EC909B01082E02C0220F331F0A94F9
:10407000E2F7A080B180F12C0F7002C0F594E794B4
:104080000A95E2F7E0FEDCC0209530952A213B211D
:1040900031832083019687309105D1F69A01215012
:1040A0003109D9010C91202F22952F7030E0D901D0
:1040B0009196DC9091970F707B0101C0EE0C0A95F0
:1040C000EAF70E2D00950D2191960C9391979296FB
:1040D0000C919297E02A9296EC92329621E0D301CD
:1040E000ED90FC90E414F50409F420E0122B8E16F8
:1040F0009F0609F082CF41E050E0F10121911F01BC
:10410000E22FE295EF70F0E061A12F707A0102C01A
:10411000EE0CFF1C2A95E2F79701362F322B31A3C4
:1041200032A12095232322A320EA2A95F1F77A01D0
:10413000082E02C0EE0CFF1C0A94E2F737016094CF
:10414000709426E5C22E21E0D22EE3E1F2E000E0F9
:104150005F0160817181D6015D906D01252D2295F1
:104160002F7030E0D90190962C9130E0B52DBF70C2
:1041700002C035952795BA95E2F720FF64C09B01F0
:1041800026213721318320833296D5012D913C9110
:104190006217730709F001E08E169F06C9F6F10158
:1041A00031972081E22FE295EF70F0E0F1A02F70BF
:1041B000BA0101C0660F2A95EAF7362F30953F21E4
:1041C00031A322A1262B22A3102B01968E3091051C
:1041D00009F093CF1123D9F181E08093B8010E94B7
:1041E00048059093B7018093B6018091B6019091F4
:1041F000B7010E943905059770F1809113029091E3
:10420000140290932A0280932902809115029091C2
:10421000160290932C0280932B02809117029091AA
:10422000180290932E0280932D0280911902909192
:104230001A029093300280932F021092B8010BC0A3
:104240002A293B2925CF9B012E293F299BCF8091ED
:10425000B8018111CACF0E94AF0629833A834B83EC
:104260005C836D837E8380910F0190911001892B77
:1042700041F080910C0190910D0189238F3F09F04D
:1042800017C18091140190911501892B41F0809103
:1042900011019091120189238F3F09F0EFC08091A5
:1042A000BA019091BB019C012F5F3F4F3093BB013E
:1042B0002093BA0162E370E00E942C2A892B09F056
:1042C000D5C019868FEF8A878F8388870FEF22E00A
:1042D00030E0AE01495F5F4F62E070E0CE010996C9
:1042E0000E94120F8885803309F0A4C081E080937A
:1042F000B90182E08987FF24FA94FA86FF82F88662
:104300000FEF22E030E0AE01495F5F4F62E070E006
:10431000CE0109960E94120FD88483E08987FA861D
:10432000FF82F88622E030E0AE01495F5F4F62E035
:1043300070E0CE0109960E94120FE88484E089871C
:10434000FA86FF82F88622E030E0AE01495F5F4FD7
:1043500062E070E0CE0109960E94120F6885062E79
:10436000000C770B880B990B0E94992B4B015C0179
:104370006E2D0E2C000C770B880B990B0E94992B3D
:1043800020E83BE746E05FE30E94252C2B013C013F
:1043900020ED34ED49E55FE3C501B4010E94252C11
:1043A0009B01AC01C301B2010E94F52A0E94612B5E
:1043B000062FEE2DFF27E1950CF4F095BF01072E97
:1043C000000C880B990B0E94992B20ED34ED49E5E8
:1043D0005FE30E94252C2B013C0120E83BE746E0EF
:1043E0005FE3C501B4010E94252C9B01AC01C30110
:1043F000B2010E94F52A0E94612B262F8091BC01F8
:104400008823C9F18091BA019091BB0165E070E009
:104410000E942C2A892B19F421952D830E83D7FE17
:104420000BC049815A816B817C818D819E810E9464
:10443000900602C01092B901812F2A960FB6F89407
:10444000DEBF0FBECDBFDF91CF911F910F91FF90C7
:10445000EF90DF90CF90BF90AF909F908F907F9024
:104460006F905F904F903F902F9008958091B90189
:10447000882311F33ECF0B832C83D1CF809113017E
:10448000882309F40CCF109213010E944805816023
:10449000782F909315018093140140911101509150
:1044A000120160911301809115010E94481FF7CEFF
:1044B00080910E01882309F4E4CE10920E010E942F
:1044C00048058160782F9093100180930F014091EF
:1044D0000C0150910D0160910E01809110010E941C
:1044E000481FCFCE1F920F920FB60F9211242F9319
:1044F0003F934F935F936F937F938F939F93AF936C
:10450000BF93CF93DF93EF93FF93D091E900DF70D8
:104510008091EC00C82FC17080FDC0E81092E900C6
:104520008091F000877F8093F00078940E94691357
:104530001092E9008091F00088608093F000CD2B0C
:10454000CF70C093E900FF91EF91DF91CF91BF91C0
:10455000AF919F918F917F916F915F914F913F911B
:104560002F910F900FBE0F901F9018951F920F92D2
:104570000FB60F9211242F933F934F935F936F9336
:104580007F938F939F93AF93BF93EF93FF9380910C
:10459000E10082FF09C08091E20082FF05C08091A6
:1045A000E1008B7F8093E1008091DA0080FF24C0DE
:1045B0008091D80080FF20C08091DA008E7F8093A8
:1045C000DA008091D90080FF9DC080E189BD82E141
:1045D00089BD09B400FEFDCF81E0809396028091F1
:1045E0008902811109C00E949A030E94650480918A
:1045F000E20084608093E2008091E10080FF17C0B8
:104600008091E20080FF13C08091E2008E7F809352
:10461000E2008091E20080618093E2008091D80006
:1046200080628093D80019BC85E0809396028091C7
:10463000E10084FF2BC08091E20084FF27C080E16D
:1046400089BD82E189BD89B5982F917080FFFBCF2C
:104650008091D8008F7D8093D8008091E1008F7E7B
:104660008093E1008091E2008F7E8093E200809150
:10467000E20081608093E20080919702882309F430
:1046800047C084E080939602809196028091E10079
:1046900083FF27C08091E20083FF23C08091E10067
:1046A000877F8093E10082E08093960210929702C8
:1046B0008091E1008E7F8093E1008091E2008E7F07
:1046C0008093E2008091E20080618093E20042E00A
:1046D00060E080E00E9433048091F0008860809365
:1046E000F000FF91EF91BF91AF919F918F917F91DA
:1046F0006F915F914F913F912F910F900FBE0F904F
:104700001F90189519BC109296021092890274CFCE
:104710008091E30087FD93E090939602B5CF789463
:104720001F921FB61F9211248F939F93AF93BF9335
:104730008091820290918302A0918402B0918502BF
:104740000196A11DB11D8093820290938302A093D4
:104750008402B0938502BF91AF919F918F911F907A
:104760001FBE1F9018951F921FB61F9211248F9382
:104770009F93AF93BF9380918102811113C0809169
:10478000820290918302A0918402B09185024196A9
:10479000A11DB11D8093820290938302A093840295
:1047A000B0938502BF91AF919F918F911F901FBED3
:1047B0001F901895CDB7DEB7AA970FB6F894DEBF55
:1047C0000FBECDBF84B7877F84BF0FB6F894A8957E
:1047D00080916000886180936000109260000FBE3D
:1047E00080E890E00FB6F8948093610090936100A8
:1047F0000FBE85B7806885BF85B7806885BF80E0BC
:1048000098E09093AD018093AC010E949A030E94BE
:1048100065048091E20084608093E2007894809146
:1048200096028823A1F01091E9001F709091EC008E
:10483000892F817090FD80E8182B1092E9008091FB
:10484000E80083FD0E9469131F701093E90082E065
:1048500084BD93E095BD9AEF97BD80936E000E9452
:104860009910811102C00E94D80FA6E5B1E02AE597
:1048700031E0AD0161E070E0FA018191AF01E82F14
:10488000E295EF70F0E0F1A08F708B0101C0000F96
:104890008A95EAF7902F90959F2191A382A1802B72
:1048A00082A32417350741F74AE551E068E671E035
:1048B0008A01EE24E394F12CF80181918F01E82F15
:1048C000E295EF70F0E0B1A08F70670101C0CC0CF1
:1048D0008A95EAF79C2D90959B2191A382A18C2922
:1048E00082A36017710741F701E010E0FA0181919E
:1048F000AF01E82FE295EF70F0E0D1A08F70780162
:1049000001C0EE0C8A95EAF79E2D90959D2191A30A
:1049100082A18E2982A36417750741F741E050E018
:104920008D91E82FE295EF70F0E011A18F70BA0140
:1049300001C0660F8A95EAF7962F9095912391A36F
:1049400082A1862B82A32A173B0751F710921402EB
:104950001092130210922A0210922902109216024B
:104960001092150210922C0210922B021092180233
:104970001092170210922E0210922D0210921A021B
:10498000109219021092300210922F020E945313BB
:10499000811102C00E94E91282E090E00E94AC2ADC
:1049A000809320020E94B210909312028093110211
:1049B0000E94D81F8FE39CE90197F1F700C0000027
:1049C0000E94D81F8091290280FF08C06FEF7FEFFF
:1049D00090E080E00E94DE2A0E94280583E090E0BB
:1049E0000E94AC2A0E94820A8091A0020E943E0B83
:1049F000509A5198599A80911B02811133C00E949C
:104A00005313811104C00E94E9120E94351288E0FC
:104A100090E00E94B42A60937602709377028093AC
:104A20007802909379026E7F71F40E94351288E0CB
:104A300090E00E94B42A609376027093770280938C
:104A40007802909379020E94BA05109251028091E7
:104A5000760280FF04C060E086950E94D21181E05A
:104A600080931B0254985C9A3E98469A89B182952D
:104A70008170369916C290E0892B80931E0280E0E7
:104A800091E090937E0280937D0258E1E52EF12C17
:104A900060E4562E71E3C72E72E0D72E8091960205
:104AA00000E112E1853009F435C20E94D81F882345
:104AB00059F08FB7F894409182025091830260912F
:104AC0008402709185028FBFA9E2B2E0E1E2F2E0D8
:104AD00010E000E0702F8D919D9121913191281768
:104AE000390709F427C22827392760E0AA24A394AC
:104AF000B12CA9014A215B21452B09F415C269A3F8
:104B00007AA39C012A213B2191E0232B09F490E018
:104B10009BA30E9448058160782F9DA38CA349A187
:104B20005AA16BA18DA10E94481F000F111FF8010F
:104B3000EF5DFD4F80819181A826B926B182A082C8
:104B4000809151028823D1F180915002E091760248
:104B5000E695E81BE0934C02823009F002C2F0E0D7
:104B6000E95BFD4FE4910E2F10E08DE7A82E8EE05B
:104B7000B82E80914D02882361F010924D020E9460
:104B8000480590934B0280934A0210924F02109274
:104B90004E020E944805E0914A02F0914B028E1BA2
:104BA0009F0B8F3F9F4750F4E00FF11FF0934B0294
:104BB000E0934A028AE492E0F5010995E0911E0231
:104BC000EE0FEE0FE0931E0289B184FB662460F8BD
:104BD000369921C280E08629E82BE0931E02EF700F
:104BE000F0E0E859FE4F808190911D02890F80937B
:104BF0001D0220E08430DCF080911C028F5F8093E6
:104C00001C0281E080930E010E9448058160782F8C
:104C10009093100180930F0140910C0150910D0170
:104C200060910E01809110010E94481F21E0809147
:104C30001D028D3FDCF480911C02815080931C0288
:104C400081E0809313010E9448058160782F909342
:104C5000150180931401409111015091120160914E
:104C60001301809115010E94481F21E080911D02CF
:104C7000082E000C990B64E070E00E942C2A8093AF
:104C80001D02222359F08FB7F8944091820250916F
:104C9000830260918402709185028FBF86E0E8E311
:104CA000F2E0DE01119601900D928A95E1F7B09045
:104CB0003A02A0903B0210913C0200913D021092FA
:104CC0003A0210923B0210923C0210923D028B2D50
:104CD0008A2909F448C080913602909137020E94D7
:104CE00039059C0190913202992309F48EC3233334
:104CF0003105C8F19F3F19F09F5F90933202BB20AE
:104D000059F00E9486079FEF1B140CF491E0899FD5
:104D1000802D112480933A02AA2059F00E94860720
:104D20009FEF1A140CF491E0899F802D1124809339
:104D30003B0230913A023323B1F020913B0222230F
:104D400091F045EB3403C0011124992309F466C1A5
:104D500090933A0245EB240390011124332309F484
:104D600061C130933B02812F802B09F448C08091B0
:104D70003402909135020E9439059C0190913102D4
:104D8000992309F43DC325363105C8F19F3F19F039
:104D90009F5F90933102112359F00E9464079FEFA7
:104DA00011160CF491E0899F802D112480933C0210
:104DB000002359F00E9464079FEF10160CF491E055
:104DC000899F802D112480933D0230913C02332332
:104DD000B1F020913D02222391F045EB3403C00154
:104DE0001124992309F422C190933C0245EB24033A
:104DF00090011124332309F41DC130933D028091A9
:104E00003A0290913B02892B90913C02892B909120
:104E10003D02892B11F00E94D00686E0FE013196FA
:104E2000A8E3B2E001900D928A95E1F70E94451245
:104E30000E94A80590911F02891721F00E94A805E1
:104E400080931F0280919602843009F027CE83E080
:104E50008093E9008091E80082FF20CE8091E800F5
:104E600090E085FF0CC00E94B90330E2A32EB12C64
:104E70008E010F5F1F4F882309F4EAC091E08091F3
:104E8000E8008B778093E800992309F407CEE98145
:104E9000E150E33108F062C1F0E0EE52F34D0C94C2
:104EA000622A92E0E9CD80919602843019F10E9445
:104EB0004512109281020FB6F894A895E092600016
:104EC0000FBE5092600083B7817F846083BF83B739
:104ED000816083BF7894889583B78E7F83BF0FB638
:104EE000F894A8958091600088618093600010928A
:104EF00060000FBE80919502882361F00E94D81F48
:104F0000E9E2F2E081919191892B09F05AC2CE1623
:104F1000DF06C1F780919602853009F4C4CF0E9464
:104F20005E130E94A805C1CD6F5FAA0CBB1C6E303A
:104F300009F0DFCD0F5F1F4F0430110509F0CACD16
:104F40008FEF8EA38FA318A60E9448058160782F4B
:104F50009AA789A74EA15FA168A58AA50E94481FAC
:104F6000EFCD863059F4F0E0EC5BFD4FE4910E2F6D
:104F700010E0BDE6AB2EBEE0BB2EFBCD893061F468
:104F8000E695F0E0EF5BFD4FE4910E2F10E0A3ED0E
:104F9000AA2EADE0BA2EEDCD8F3061F4E695F0E0AB
:104FA000E25CFD4FE4910E2F10E0F2E6AF2EFDE043
:104FB000BF2EDFCD853159F4F0E0E55CFD4FE49183
:104FC0000E2F10E0E1E1AE2EEDE0BE2ED2CD08E2D4
:104FD00010E054E8A52E5CE0B52E883109F4C9CD67
:104FE000833249F4E9E3F2E00591149171E1A72ECF
:104FF0007EE0B72EBECD04EF11E068E4A62E6CE093
:10500000B62E843209F4B5CD00ED17E049EBA42E9D
:1050100045E0B42EAECD82E090E0DDCD81E080931E
:105020003A0298CE81E080933B029DCE81E080934E
:105030003C02DCCE81E080933D02E1CE8091F10024
:10504000F80181938F01F1E0AF1AB10809F416CF8E
:105050008091E80085FDF2CF8091E8008B77809306
:10506000E8000E94B903882399F308CF1A8289E0E7
:105070008B833FC08A81823009F4B9C18330A9F0A3
:10508000813009F06BC02FB7F89460918202709163
:10509000830280918402909185022FBF0E94682A2A
:1050A0006B837C838D839E8324C0809129029091A1
:1050B0002A029827892798279C838B8380912B022B
:1050C00090912C029827892798279E838D83809121
:1050D0002D0290912E0298278927982798878F83F1
:1050E00080912F02909130029827892798279A87DC
:1050F000898780919602843009F0D0CC1091E90024
:105100001F709091EC00892F817090FD80E8182B22
:1051100082E08093E9008091E80080FF0DC050E0BC
:1051200040E060E270E0CE0101960E94EA038091C7
:10513000E8008E778093E8001F701093E900AECCF2
:105140008A81823059F46B817C818D819E810E949D
:10515000682A86E290E00E94C02ACBCF8FEF898335
:10516000C8CF4C816B818A810E94041098278927BF
:1051700098279E838D83BDCF0D811E811027012727
:1051800010278A81AB802CE1A29E5001112440E7B8
:10519000849FA00CB11C11248C8190E0880F991F72
:1051A000A80EB91E612FC50187960E94C02A602FE4
:1051B000C5018896D0CF0E946B0F9BCF8A81813822
:1051C000C1F060F4803809F094CF20E04B81609109
:1051D0007802809177020E94D2108BCF823859F1E9
:1051E000833809F086CF20E0409179026C818B8171
:1051F000F2CF60E08B810E94D2119B818091760278
:10520000911111C08E7F80937602109251028FEF20
:1052100090E7E2E081509040E040E1F700C00000FC
:105220000E94130C66CF81608093760260E08695C1
:105230000E94D2115ECF8B8180937A025ACF8A81ED
:10524000813899F030F4803809F053CF8091790299
:105250000FCF823891F0833809F04BCF80917702DD
:105260008B83809178028C8344CF8091760280FF7B
:1052700002C08695FDCE80E0FBCE80917A02F8CE0A
:105280006091760270917702809178029091790214
:105290000E94C0102ECF80E18A832BCF82E08A83C8
:1052A00089E1E6CE0A811B81102701271027CE0154
:1052B00001965C018C80FC01E80DF11D4F01C801D5
:1052C00089519E4FA814B90409F413CF0931F2E0B3
:1052D0001F0750F40E94AC2AF50184830F5F1F4F13
:1052E000FFEFAF1ABF0AEBCFF5011482F7CF0A81A7
:1052F0001B81102701271027CE0101964C01AC809D
:10530000A00EB12EB11CC80189519E4F0A151B0574
:1053100009F4EFCE0931E2E01E0720F4F4016481C4
:105320000E94C02AFFEF8F1A9F0A0F5F1F4FEBCF1B
:105330000E945B0FDECE84E0AFCF0A811B81102775
:1053400001271027CE0101965C018C80FC01E80D3D
:10535000F11D4F01C80187968A149B0409F4C9CE38
:10536000003CF1E01F0750F40E94AC2AF501848351
:105370000F5F1F4FFFEFAF1ABF0AECCFF50114828A
:10538000F7CF0A811B81102701271027CE01019634
:105390004C01AC80A00EB12EB11CC8018796A0169E
:1053A000B10609F4A6CE003CE1E01E0720F4F401AA
:1053B00064810E94C02AFFEF8F1A9F0A0F5F1F4F60
:1053C000ECCF09BD19BD09B400FEFDCF8091D80016
:1053D0008F7D8093D8008091E00082608093E00010
:1053E0008091E00081FDFCCF0E945E1393CD86E2A8
:1053F00090E00E94AC2A1B821C821D828E8379CE93
:105400002D32314008F0C4CCFACC2D32314008F0B6
:1054100073CCA9CC87FB082E062687FD819567FDF6
:1054200061950E94A02A0EF4919507FC819508953C
:10543000AA1BBB1B51E107C0AA1FBB1FA617B707BA
:1054400010F0A61BB70B881F991F5A95A9F78095D6
:105450009095BC01CD01089597FB072E16F400949A
:1054600007D077FD09D00E94182A07FC05D03EF42A
:10547000909581959F4F0895709561957F4F089500
:10548000A1E21A2EAA1BBB1BFD010DC0AA1FBB1F48
:10549000EE1FFF1FA217B307E407F50720F0A21BBA
:1054A000B30BE40BF50B661F771F881F991F1A9427
:1054B00069F760957095809590959B01AC01BD0151
:1054C000CF010895EE0FFF1F0590F491E02D099490
:1054D00069279627692778278727782708950E94C4
:1054E000772A332312F48A1B9B0B0C94882AA29FE1
:1054F000B001B39FC001A39F700D811D1124911DA8
:10550000B29F700D811D1124911D08950E94772A6C
:10551000B7FF0895821B930B08950E94772AA59FD9
:10552000900DB49F900DA49F800D911D112408959E
:10553000B7FF0C948D2A0E948D2A821B930B08952D
:10554000991B79E004C0991F961708F0961B881FD5
:105550007A95C9F780950895F999FECF92BD81BDDE
:10556000F89A992780B50895A6E1B0E044E050E0AC
:105570000C94E62AA8E1B0E042E050E00C94E62A60
:10558000262FF999FECF92BD81BDF89A019700B4FC
:10559000021639F01FBA20BD0FB6F894FA9AF99A9C
:1055A0000FBE08950396272F0E94C12A0E94C02A89
:1055B000252F0E94C12A242F0C94C12A0196272F3F
:1055C0000E94C12A0C94C02ADC01CB01FC01F9998C
:1055D000FECF06C0F2BDE1BDF89A319600B40D923F
:1055E00041505040B8F708955058BB27AA270E9451
:1055F0000C2B0C94EB2B0E94DD2B38F00E94E42B3B
:1056000020F039F49F3F19F426F40C94DA2B0EF4B1
:10561000E095E7FB0C94D42BE92F0E94FC2B58F368
:10562000BA17620773078407950720F079F4A6F587
:105630000C941E2C0EF4E0950B2EBA2FA02D0B010E
:10564000B90190010C01CA01A0011124FF27591BC7
:1056500099F0593F50F4503E68F11A16F040A22FCD
:10566000232F342F4427585FF3CF4695379527953E
:10567000A795F0405395C9F77EF41F16BA0B620B3D
:10568000730B840BBAF09150A1F0FF0FBB1F661F84
:10569000771F881FC2F70EC0BA0F621F731F841FC7
:1056A00048F4879577956795B795F7959E3F08F0ED
:1056B000B0CF9395880F08F09927EE0F97958795AF
:1056C00008950E94682B6894B1110C941F2C0895C2
:1056D0000E94042C88F09F5798F0B92F9927B75152
:1056E000B0F0E1F0660F771F881F991F1AF0BA9586
:1056F000C9F714C0B13091F00E941E2CB1E008959A
:105700000C941E2C672F782F8827B85F39F0B93F8B
:10571000CCF3869577956795B395D9F73EF4909538
:105720008095709561957F4F8F4F9F4F0895E894B6
:1057300009C097FB3EF490958095709561957F4FD9
:105740008F4F9F4F9923A9F0F92F96E9BB27939587
:10575000F695879577956795B795F111F8CFFAF497
:10576000BB0F11F460FF1BC06F5F7F4F8F4F9F4FC8
:1057700016C0882311F096E911C0772321F09EE826
:10578000872F762F05C0662371F096E8862F70E08C
:1057900060E02AF09A95660F771F881FDAF7880F66
:1057A0009695879597F9089597F99F6780E870E037
:1057B00060E008959FEF80EC089500240A94161687
:1057C000170618060906089500240A9412161306EF
:1057D000140605060895092E0394000C11F488237D
:1057E00052F0BB0F40F4BF2B11F460FF04C06F5F99
:1057F0007F4F8F4F9F4F089557FD9058440F551F6F
:1058000059F05F3F71F04795880F97FB991F61F042
:105810009F3F79F087950895121613061406551FB9
:10582000F2CF4695F1DF08C0161617061806991F25
:10583000F1CF86957105610508940895E894BB271A
:1058400066277727CB0197F908950E94382C0C948E
:10585000EB2B0E94DD2B38F00E94E42B20F09523E7
:1058600011F00C94D42B0C94DA2B11240C941F2CD3
:105870000E94FC2B70F3959FC1F3950F50E0551FCC
:10588000629FF001729FBB27F00DB11D639FAA2795
:10589000F00DB11DAA1F649F6627B00DA11D661FE4
:1058A000829F2227B00DA11D621F739FB00DA11D05
:1058B000621F839FA00D611D221F749F3327A00DBF
:1058C000611D231F849F600D211D822F762F6A2F5B
:1058D00011249F5750409AF0F1F088234AF0EE0FC0
:1058E000FF1FBB1F661F771F881F91505040A9F7ED
:1058F0009E3F510580F00C94D42B0C941F2C5F3FDD
:10590000E4F3983ED4F3869577956795B795F79528
:10591000E7959F5FC1F7FE2B880F911D96958795A0
:1059200097F90895FC014150504030F0019006165F
:10593000D1F73197CF010895882799270895FB0162
:10594000DC0104C08D910190801921F44150504038
:10595000C8F7881B990B0895F894FFCF8410841022
:105960008D108D108F108D108D108D10841084105F
:1059700094108D108D1094104F1477141A167714FC
:105980001A16AA14CB141A16C915D615001A001A1D
:105990003B1A3B1AE61A001B6B1A6B1A2F1B9C1B37
:1059A000AD1BAD1B36283A28A028B128BC28DB281F
:1059B000DE281F294029AE28AE284B294E2952291E
:0A59C000772998299B299D29C12908
:1059CA002505E60BC50BC10BBD0B2405060300001C
:1059DA0000060200000001191A1B1C1D1E1F2021AF
:1059EA002201020101818283E200E900EA00B50096
:1059FA00B600B700CD008301CC008A019201940160
:105A0A002102230224022502260227022A02B300C7
:105A1A00B4006F00700097C63435F4F5F6F73133E9
:105A2A00320000000000000000FF0100010000FF3A
:105A3A00FF0000010001FF00000102020202060647
:105A4A00060909090909090F0F0F0F0F0F15151577
:105A5A001819191919191919191919232440227B06
:0C5A6A0049012701AC0022063B065B0648
:00000001FF
