:100000000C9452030C9499030C9499030C94990347
:100010000C9499030C9499030C9499030C949903F0
:100020000C9499030C9499030C942C230C94E822BF
:100030000C94EB2A0C9499030C9499030C94990357
:100040000C9499030C9499030C9499030C949903C0
:100050000C9499030C94C72A0C9499030C9499035B
:100060000C9499030C9499030C9499030C949903A0
:100070000C9499030C9499030C9499030C94990390
:100080000C9499030C9499030C9499030C94990380
:100090000C9499030C9499030C9499030C94990370
:1000A0000C9499030C9499030C949903050109028B
:1000B000A10185020901A1000509190129081500FE
:1000C0002501950875018102050109300931158165
:1000D000257F95027508810609381581257F9501D0
:1000E00075088106050C0A38021581257F95017572
:1000F000088106C0C005010980A101850319012AF4
:10010000B700150126B700950175108100C0050CD8
:100110000901A101850419012AA002150126A002E6
:10012000950175108100C00660FF0961A101096297
:10013000150026FF00952075088102096315002629
:10014000FF00952075089102C005010906A101056F
:100150000719E029E7150025019508750181029529
:1001600001750881010507190029FF150026FF0008
:100170009506750881000508190129059505750181
:100180009102950175039101C00001010101010176
:10019000010101020202020202020202030303033E
:1001A000030303030404040404040405050505050E
:1001B00006060606060707070707080808080909CC
:1001C00009090A0A0A0B0B0B0C0C0C0D0D0D0E0E77
:1001D0000E0F0F0F1010111111121213131414150A
:1001E0001516161717181819191A1A1B1B1C1D1D7E
:1001F0001E1E1F20202122222324242526262728D4
:1002000029292A2B2C2D2D2E2F3031323233343503
:10021000363738393A3B3C3D3E3F40414243444506
:10022000464748494A4C4D4E4F50515354555658E5
:10023000595A5B5D5E5F616264656668696B6C6D8F
:100240006F7072737577787A7B7D7E808283858705
:10025000888A8C8E8F91939596989A9C9EA0A2A343
:10026000A5A7A9ABADAFB1B3B5B7BABCBEC0C2C448
:10027000C6C9CBCDCFD1D4D6D8DBDDDFE2E4E7E908
:10028000EBEEF0F3F5F8FAFDFFFFAA7F55402223CD
:10029000252628292A2C2D2F3032333536383A3B63
:1002A0003D3E4042434547494A4C4E5051535557B5
:1002B000595A5C5E6062646668696B6D6F717375D4
:1002C00077797B7D7F81838587898A8C8E909294D4
:1002D00096989A9C9E9FA1A3A5A7A8AAACAEAFB1E1
:1002E000B3B4B6B8B9BBBCBEBFC1C2C3C5C6C7C92B
:1002F000CACBCCCDCED0D1D2D2D3D4D5D6D7D7D8E5
:10030000D9D9DADADBDBDBDCDCDCDCDCDDDDDDDD36
:10031000DCDCDCDCDCDBDBDBDADAD9D9D8D7D7D63E
:10032000D5D4D3D2D2D1D0CECDCCCBCAC9C7C6C5F5
:10033000C3C2C1BFBEBCBBB9B8B6B4B3B1AFAEAC3B
:10034000AAA8A7A5A3A19F9E9C9A98969492908EE6
:100350008C8A89878583817F7D7B79777573716FBF
:100360006D6B6968666462605E5C5A59575553519B
:10037000504E4C4A4947454342403E3D3B3A383651
:10038000353332302F2D2C2A2928262523222B00E5
:1003900014001A00080015001700F4002A001300CA
:1003A00012000C0018001C00F500E000040016000C
:1003B000070009000A00F600340033000F000E00A9
:1003C0000D000B000000E1001D001B0006001900DD
:1003D00005004B002D0038003700360010001100DA
:1003E000000000000000E300E2008B412C004E0002
:1003F000000000004C002A008A422800000029006A
:100400001E021F02200221022202F7002A002702F8
:100410002602250224022302F8002B00000000001F
:10042000000000000000F6003402330230002F000C
:1004300030022F020000E100350035026400310275
:1004400000004B002D023802370236022E022E0029
:10045000000000000000E300E20001002C004E005C
:10046000000000004C002A0003582800000029006A
:100470001E001F00200021002200F7002A00270094
:100480002600250024002300F8002B003A003B0042
:100490003C003D003E00F600000000004F0052000E
:1004A000510050000000E1003F00400041004200C8
:1004B00043004B00000000000000000000000000AE
:1004C000000000000000E300E20003582C004E0092
:1004D000000000004C002A0001002800000000007D
:1004E00000000000000000000000F4000000000018
:1004F000000000000000C25CF500000000000000E9
:10050000000000000000F60000000000C95CC75CAD
:10051000C55CC35C0000000000000000000000009B
:1005200000004B0000000000CA5CC85CC65CC45CF4
:1005300000000000000000000000010000004E006C
:1005400000000000000000000100000000000000AA
:10055000000000000000000000000000000000009B
:10056000000000000000000000000000000000008B
:1005700000007E0F00D4FFFFFFC7000000780000DE
:100580000000000000002A2B2800000000000000EE
:1005900000000000000000000029000000002C1EE8
:1005A0003420212224342627252E362D3738271EA5
:1005B0001F202122232425263333362E37381F04CB
:1005C00005060708090A0B0C0D0E0F101112131463
:1005D00015161718191A1B1C1D2F3130232D350421
:1005E00005060708090A0B0C0D0E0F101112131443
:1005F00015161718191A1B1C1D2F3130354C1E0FDC
:100600000500047F3F1F643214643214783C1E1EC0
:10061000140A0509025B00030100A0FA09040000A6
:100620000103010100092111010001224000070519
:10063000810308000A0904010002030000000921E7
:100640001101000122220007058203200001070595
:100650000303200001090402000103000000092136
:1006600011010001227B000705840320000A12010A
:10067000100100000008EDFE000001000102000171
:10068000100363006F0063006F00740034003600D5
:1006900000000C0361006B006900320037000000AD
:1006A0000403090411241FBECFEFDAE0DEBFCDBF83
:1006B00004B603FE27C08091EC029091ED02A09158
:1006C000EE02B091EF028730904BA740B04BD1F4CF
:1006D0001092EC021092ED021092EE021092EF02D4
:1006E00014BE84B7877F84BF0FB6F894A895809115
:1006F0006000886180936000109260000FBEE0E0AF
:10070000F8E3099522E0A4EBB1E001C01D92AC3EF4
:10071000B207E1F711E0A0E0B1E0E6EBFCE502C0D2
:1007200005900D92A43BB107D9F70E9403240C94C5
:10073000222E0C940000E8EDF0E080818E7F808313
:100740001092E2001092DA001092E100A0EEB0E008
:100750008C9181608C9380818F77808319BCA7ED09
:10076000B0E08C918E7F8C9380818F7E80831092FD
:10077000CE0208952091E4003091E50095E6A901AC
:100780002091EC00822F817020FF06C08091E8004C
:1007900080FF06C080E008952091E80022FD1AC085
:1007A0008091DB02882389F0853089F08091EB000D
:1007B00085FD0FC02091E4003091E50042175307FA
:1007C000F9F29150E1F684E0089582E0089583E023
:1007D000089581E00895EF92FF920F931F93CF93B6
:1007E0007C018B010E94BA03C82F811117C0809130
:1007F000E80085FD0BC08091E8008E778093E800CB
:100800000E94BA03882399F3C82F08C0F701819189
:100810007F018093F1000150110949F78C2FCF918E
:100820001F910F91FF90EF9008958091DD0287FF57
:1008300013C08091E80082FF06C08091E8008B77AA
:100840008093E80004C08091DB028111F2CF08950B
:100850008091DB028823D9F38091E80080FFF8CFF4
:100860008091E8008E77ECCF982F9093E900242FA9
:10087000762F50E0891731F07091EC002091ED0057
:100880005091F00021FD07C09F5F973071F7809372
:10089000E90081E008953091EB003E7F3093EB005A
:1008A0003091ED003D7F3093ED003091EB003160F1
:1008B0003093EB007093EC002093ED005093F00028
:1008C0002091EE0027FDE0CF80E00895CF92DF92E7
:1008D000EF92FF920F931F93CF93DF93C8EDD0E079
:1008E00088818F7E8883E7EDF0E08081816080835E
:1008F00084E082BF81E08093CE0288818E7F8883EE
:1009000002EE10E0F80110821092DA0081EEC82E9B
:10091000D12CF601108288818F7788838881806846
:10092000888388818F7D888319BC1092DB021092A6
:10093000DC021092DA021092D90290EEE92EF12C2C
:10094000F70180818B7F808388818160888342E08A
:1009500060E080E00E943404F60180818E7F808315
:10096000F801808181608083808188608083F701C5
:1009700080818E7F8083888180618883DF91CF91A1
:100980001F910F91FF90EF90DF90CF900895FC01A1
:100990008091E3029091E40286179707A0F0611519
:1009A000710529F49091E8009E779093E80090E01B
:1009B0006115710551F4911108C08091E80082FF22
:1009C00034C080E00895BC01F2CF8091DB0288231F
:1009D000C1F18530C1F18091E80083FD30C0809184
:1009E000E80082FDEACF8091E80080FFE1CF8091AE
:1009F000F3002091F200382F6115710519F02830AD
:100A0000310558F091E02830310509F090E020914F
:100A1000E8002E772093E800CBCF81918093F100FE
:100A2000615071092F5F3F4FE7CF8091DB02882330
:100A300041F0853041F08091E80083FFBECF81E036
:100A4000089582E0089583E00895089580E0089570
:100A50008091D002089587E797E7909301088093EB
:100A6000000888E19AE00FB6F894A895809360009A
:100A70000FBE90936000FFCF9C014FB7F894809118
:100A8000CA029091CB02A091CC02B091CD024FBF8F
:100A9000821B930B08952FB7F8948091CA0290910E
:100AA000CB02A091CC02B091CD022FBF08959C0142
:100AB000FC0132969FEF80E04191461751F09F3F35
:100AC00019F4411101C0982F8F5F8630A9F79F3F1D
:100AD00009F40895290F311D97FD3A95F9016283B4
:100AE000089580917D02811110927D020895809178
:100AF0007C0290917B02892B90917A02892B8093C2
:100B0000B60190917D02992391F0892B8093B601D3
:100B100020E088EB91E0FC013191CF0131112F5F92
:100B2000F1E08E3B9F07B9F721110E947105E0911A
:100B30008D02F0918E02309731F00280F381E02D2A
:100B400086EB91E0099408952EE0929F800D112488
:100B5000982F977086958695869525E0829FF0015F
:100B60001124EA5AFD4F50E040E080E0219130E04E
:100B7000092E02C0369527950A94E2F72170332793
:100B8000042E01C0220F0A94EAF7822B4F5F5F4FB9
:100B90004530510559F708952EE0929F800D11249C
:100BA000982F977041E001C0440F9A95EAF7869517
:100BB0008695869595E0899FF0011124EA5AFD4FAC
:100BC00090E080E070E05191DF0111979B01082EC9
:100BD00002C0369527950A94E2F7217021952527C2
:100BE000242325272C9301968530910561F70895DC
:100BF0008091550290912402981301C008958F5F4F
:100C00008770FACF882341F0809590917C028923E8
:100C100080937C020C9477050895882339F0909195
:100C20007C02982B90937C020C9477050895209178
:100C3000190230911A022817390771F090931A029D
:100C400080931902E0918D02F0918E02309721F08D
:100C50000084F185E02D09940895209117023091C8
:100C600018022817390771F0909318028093170221
:100C7000E0918D02F0918E02309721F00680F7818D
:100C8000E02D09940895E0918D02F0918E02309745
:100C900039F022E0DC012C930480F581E02D0994E9
:100CA0000895E0918D02F0918E02309721F001902D
:100CB000F081E02D099480E00895FA01811101C0CE
:100CC000FB0109948091BD02982F9E7F61F4817091
:100CD00082608093BD028091C002893718F088E756
:100CE0008093C00208958635B0F381708465F1CF9A
:100CF000AF92BF92DF92EF92FF920F931F93CF9329
:100D0000DF93182F062FE901493708F048E7E42F51
:100D1000F0E0E757FE4F011110C0E4915E2F4E2F17
:100D20004983E8835A83DF91CF911F910F91FF9000
:100D3000EF90DF90BF90AF900895202F30E0449166
:100D4000D42EE42EF12C56E0159FC0011124EFEFB4
:100D5000F0E0BF010E942C2B812F90E0880F991F9B
:100D600055E5569FD001579FB00D11248A1B9B0B50
:100D7000982F990F890F5F01A21AB30AAE9CD00178
:100D8000AF9CB00DBE9CB00D11245B2F089F80015D
:100D90001124012F11275F01A01AB10AAE9C800116
:100DA000AF9C100DBE9C100D11245F01A81AB10854
:100DB000A29EC001A39E900DB29E900D1124892F7A
:100DC0009927E81BF90BEE9DC001EF9D900DFE9D4C
:100DD000900D1124E92F62307105A1F050F46115D6
:100DE000710509F49DCF6130710581F0EB2F512F12
:100DF00097CF6430710569F080F06630710509F4B1
:100E00008FCFF4CFE42F4B2F592F8ACFE42F412FD0
:100E100087CFEB2F542F492F83CF4B2F5D2DE12F01
:100E20007FCFCF93DF9300D000D000D0CDB7DEB717
:100E300049835A836B837C838D839E8386E0FE0186
:100E40003196ABEAB2E001900D928A95E1F72696D1
:100E50000FB6F894DEBF0FBECDBFDF91CF910895DE
:100E6000CF93DF9300D000D000D0CDB7DEB786E0BF
:100E7000EBEAF2E0DE01119601900D928A95E1F71E
:100E800029813A814B815C816D817E8180E090E097
:100E900026960FB6F894DEBF0FBECDBFDF91CF917F
:100EA00008950E944B059C019091A1028091A2029D
:100EB000982B21F030939E0220939D029091A302E3
:100EC0008091A402982B21F030939B0220939A02E8
:100ED0008FE992E00C94430690E080E00E942D069A
:100EE00090E080E00E94170610927B0210927A0236
:100EF0000E94770586E0EFE9F2E0DF011D928A9516
:100F0000E9F710929C021092990210921D020C9423
:100F1000510760937E0270937F02809380029093CA
:100F200081020C946C074091A102803F59F480919A
:100F3000A20287FF0DC01092A20241110BC01092B5
:100F40009C0208C0813F81F48091A20218169CF394
:100F5000442381F08091A3029091A402892B09F08F
:100F60005AC0109299020895823F49F447FFF0CF8A
:100F70001092A1028091A2028111ECCFE0CF833FB9
:100F800019F41416ACF3E4CF9091A302893F29F42D
:100F90001916F4F61092A302DBCF8A3F19F497FFDB
:100FA000D7CFF8CF9091A4028B3F29F497FFD0CFF1
:100FB0001092A402CDCF8C3F19F41916CCF3C8CFF0
:100FC0009CE0980F953090F4845F990B21E030E01D
:100FD000B90102C0660F771F8A95E2F7CB018095B1
:100FE0009091A00289238093A002B2CF8D3F31F46B
:100FF00080911D028E7F80931D02AACF8E3F21F427
:1010000080911D028D7FF7CF8F3F09F0A1CF809196
:101010001D028B7FF0CF08958823F1F19CEF980F8C
:10102000913A78F4E8EBF1E02EEB31E091918913FD
:1010300003C0DF0111971C922E173F07B9F70C94DC
:10104000770590E2980F983088F4877021E030E0BF
:10105000A90102C0440F551F8A95E2F7CA01809585
:1010600090917C02892380937C02E9CF9BE5980FC5
:10107000933020F490E080E00C942D0698E5980FD2
:10108000973120F490E080E00C941706803F20F028
:101090000E9493070C945107089580911D0280FDD2
:1010A00016C081FD16C082FD16C08091990288236A
:1010B000A1F0883280F428E0829FC001112468E208
:1010C00070E00E94402B862F672B39F0089582E054
:1010D000089584E0089588E0089581E0089580915E
:1010E0001D0280FD14C081FD14C082FD16C08091D8
:1010F0009C02882381F0843180F422E3829FC00126
:10110000112464E170E00E94402B862F08958CE04A
:10111000089589E1089585E0089582E30895803F68
:1011200031F40E946F0881958093A2020895813F57
:1011300019F40E946F08F8CF823F31F40E946F08C3
:1011400081958093A1020895833F19F40E946F084E
:10115000F8CF893F29F40E944D088093A302089597
:101160008A3F21F40E944D088195F7CF8B3F31F4DF
:101170000E944D0881958093A40208958C3F19F434
:101180000E944D08F8CF9CE0980F953070F4845F72
:10119000990B21E030E001C0220F8A95EAF7809197
:1011A000A002822B8093A00208958D3F31F480919C
:1011B0001D02816080931D0208958E3F21F480916D
:1011C0001D028260F7CF8F3FB9F780911D028460C6
:1011D000F1CFCF93C82F882309F456C08CEF8C0F22
:1011E000813AF8F4E8EBF1E08EEB91E0DF012D912C
:1011F000C21759F08A179B07D1F76C2F86EB91E045
:101200000E945705CF910C9477052191C21303C01A
:10121000DF0111971C928E179F07B9F70E9477057F
:10122000ECCF80E28C0F883068F4C77021E030E0AA
:1012300001C0220FCA95EAF780917C02822B80932D
:101240007C02E0CFEBE5EC0FE33040F4F0E0EE5A47
:10125000FE4F808190E0CF910C942D06E8E5EC0FD5
:10126000E73150F4F0E0EE0FFF1FEB5AFE4F8081A4
:101270009181CF910C941706C03F30F08C2F0E94C3
:101280008F08CF910C945107CF91089590918202CD
:1012900092FF06C0282F28712830F9F4877F8460D8
:1012A00093FF06C0282F28712831F1F4877E8461CE
:1012B0002091830220FF06C0382F38713830D9F4CE
:1012C000877F816021FF06C0282F28712831D1F443
:1012D000877E816194FD877E0895282F24712430B4
:1012E000F9F68B7F8860DCCF282F2471243101F739
:1012F0008B7E8861DDCF382F3171313019F78E7FC9
:101300008860E0CF282F2171213121F78E7E8861FE
:10131000E1CFCF92DF92EF92FF920F931F938B0159
:101320009C01A9016627772780E1411551056105D8
:10133000710519F4B901A80180E0C52ED62EE72E5B
:10134000FF24C114D104E104F10419F0885FB7014E
:10135000A6016A017B01F4E0F694E794D794C79460
:10136000FA95D1F7C114D104E104F10419F08C5FAE
:10137000B701A6016A017B01E2E0F694E794D794F5
:10138000C794EA95D1F7C114D104E104F10419F02E
:101390008E5FB701A6017695679557954795452BC2
:1013A000462B472B09F08F5F813011F0823061F4BA
:1013B00081E080931B02C901B8011F910F91FF903A
:1013C000EF90DF90CF90089510921B02F4CF0E940F
:1013D00089096093E5027093E6028093E702909397
:1013E000E8020C946C070F931F936091E5027091D3
:1013F000E6028091E7029091E8028B019C01067061
:10140000112722273327063011052105310529F43C
:1014100068601F910F910C94E709677FFACF0F93D3
:101420001F9341E050E060E070E004C0440F551F9E
:10143000661F771F8A95D2F7CB01BA016095709528
:10144000809590950091E5021091E6022091E702C7
:101450003091E80260237123822393231F910F911F
:101460000C94E70990917902809589238093790201
:10147000282F277039F4282F082E000C330B9217D1
:10148000130621F49091830292FF07C085958595FC
:1014900085950E940F0A1092790208950F931F9369
:1014A00041E050E060E070E004C0440F551F661F4B
:1014B000771F8A95D2F78091E5029091E602A0917C
:1014C000E702B091E8028A019B01082B192B2A2B15
:1014D0003B2BC901B8011F910F910C94E709CF93E1
:1014E00084E090E00E94D92BC82F82E290E00E9415
:1014F000D92B982F8C2FCF9108950F931F93CF93B3
:10150000DF93C42FD0E0CC0FDD1F2CE1629FC00D14
:10151000D11D112430E7839FC00DD11D1124CE01B0
:1015200087960E94D92B082F10E0102F0027CE019C
:1015300088960E94D92B9801282BC901DF91CF9161
:101540001F910F910895462F843038F4743028F499
:101550006E3018F4672F0C947D0A90E080E00895B7
:10156000CF93DF930E94A30AEC0182389105A9F181
:10157000D8F58133910509F496C048F58932910573
:1015800009F48AC08A9709F495C0C11521E5D207EC
:1015900008F0BCC0C11530E5D30708F014C1C83E3F
:1015A000D10508F09CC0C03ED10560F5C83AD10510
:1015B00008F087C0C53AD10508F0FDC0C130D1059B
:1015C00009F12097F9F0C430D105E0F440C085332B
:1015D000910509F45AC0C997C1F6809182028370BF
:1015E00089F0C0EED0E00EC0833E910599F170F411
:1015F000803E910501F1823E910539F6809182028B
:1016000082FD21C0CE01DF91CF910895863E9105E4
:1016100061F1873E910571F1843E910509F0B5CFE6
:101620008091830281FFEECF80918202C7EED0E0ED
:1016300084FD0DC0E7CF8091820280FD12C19091A0
:10164000830290FFDFCFC3EED0E084FFDBCFD0E09A
:10165000C0E0D8CF8091820282FD06C190918302C2
:1016600090FDBFCF84FFCECFF2CF8091820283FD69
:10167000DDCFC8CF8091820283FDF9C090918302B3
:1016800091FFF0CFC4EED0E0BDCF8091820285FF04
:10169000B9CFC9E2D0E0B6CF8091820285FFB2CF48
:1016A000C5E3D0E0AFCF8091820286FFABCFCAE224
:1016B000D0E0A8CF8091820286FFA4CFC1E3D0E022
:1016C000A1CFCF3BD10518F6C85AD0E0CC0FDD1F13
:1016D000CB5ADE4F0990D881C02DD46493CFC11569
:1016E00040E2D40758F4C11581E0D80708F08ACF4A
:1016F000C03FD10508F4ABCFD06584CFC11590E4CD
:10170000D90708F4A4CFDF70D06A7CCFC11525E5D6
:10171000D20700F5C11534E5D30708F08AC0C1151A
:1017200043E5D40708F071C0C11582E5D80708F475
:1017300067C0CE018370992721E030E002C0220FFC
:10174000331F8A95E2F7C695C69580E2C89FE001EF
:10175000112452C0C11599E5D907A8F4C11528E58F
:10176000D20708F06BC0C11536E5D30708F06FCF7C
:101770008C2F0E944609C82FD0E0DC2FCC27CC2725
:10178000DF71D0623FCFC1154AE5D40708F45BC0D2
:10179000CE0190568115904208F059CF8D2F8F7150
:1017A0000E94460990E0982F882788279F719C0106
:1017B0002C2BE901E6CFC55AD0E0CE5ADE4FC881C6
:1017C000D0E0D0641FCFCE01E4E096958795EA95EE
:1017D000E1F783702C2F26952695237040E2249FF5
:1017E00090011124382B8C2F8370C1E0D0E002C00F
:1017F000CC0FDD1F8A95E2F7C22BD32BDC6802CF1A
:10180000DC2FCC27C16FD06AFDCECE018370992723
:1018100021E030E002C0220F331F8A95E2F7C6951F
:10182000C69590E2C99FE0011124C22BD32BDA6840
:10183000E9CEDC2FCC27C46FD06AE4CEDC2FCC27D6
:10184000C06FD06ADFCE8C2F8F700E94460934E0C3
:10185000D695C7953A95E1F7CF709C2FEC01D069EA
:10186000D1CEC9E3D0E0CECEC2EED0E0CBCEC6EE34
:10187000D0E0C8CEBF92CF92DF92EF92FF920F934B
:101880001F93CF93DF938C01C090E502D090E602C6
:10189000E090E702F090E80280917E0290917F0252
:1018A000A0918002B0918102C82AD92AEA2AFB2A93
:1018B000CFE1D0E0BC2ED701C6010C2E04C0B695F6
:1018C000A795979587950A94D2F780FD0EC021972A
:1018D00088F7B12C8B2DDF91CF911F910F91FF9045
:1018E000EF90DF90CF90BF900895B8018C2F0E94A9
:1018F000B00A019761F3EECFCF93DF93EC010E9422
:101900003A0CBE01DF91CF910C94B00A0E947C0C7E
:10191000292F2F7092959F7092509E3078F4E92F66
:10192000F0E0EC5DF14D0C94542B803F19F020F465
:10193000883E20F481E00895843FE1F380E008953B
:10194000883EC0F3813FD1F7F5CF822F86958695EB
:10195000869508956F927F928F929F92AF92BF92D9
:10196000CF92DF92EF92FF920F931F93CF93DF936B
:101970008EE8C82E83E0D82E93EBE92EF12CE701F8
:10198000C057D10936011BC0F50185909490692D8F
:10199000C8010E94ED2B682DC80101960E94ED2B15
:1019A00082E0A80EB11C0E5F1F4FC017D10761F770
:1019B0008CE1680E711C6C96CE15DF0529F08E0146
:1019C0000C5111095301E0CF7E0180E7E80EF11CB4
:1019D00080E7C80ED11C83E7E81682E0F80679F6A6
:1019E000DF91CF911F910F91FF90EF90DF90CF90FB
:1019F000BF90AF909F908F907F906F900895CF93FE
:101A0000C0918302C2FB992790F9981781F080FB5F
:101A1000C2F9C09383026091820284E090E00E9448
:101A2000ED2B6C2F82E290E0CF910C94ED2BCF91B7
:101A30000895CF93DF93C7EED1E060E0CE010E941E
:101A4000ED2B2196C11584E0D807B9F7DF91CF912E
:101A50000895CF93DF9300D00F92CDB7DEB790916A
:101A6000DB02943011F589837B836A839093E900CC
:101A70008FEF9091E800815095FD06C095ED9A9505
:101A8000F1F700008111F5CF8091E80085FF0DC0CE
:101A900050E040E063E070E0CE0101960E94EB036D
:101AA0008091E8008E778093E8000F900F900F9060
:101AB000DF91CF910895BC0184E00C94290DBC0105
:101AC00083E00C94290D9C0184E08093E9009FEF52
:101AD0008091E800915085FD06C085ED8A95F1F76B
:101AE00000009111F5CF8091E80085FF0CC050E017
:101AF00040E066E070E0C9010E94EB038091E800DD
:101B00008E778093E8000895CF93DF93EC0181E016
:101B10008093E9008FEF9091E800815095FD06C019
:101B200095ED9A95F1F700008111F5CF8091E800CD
:101B300085FF14C050E040E068E070E0CE010E94F4
:101B4000EB038091E8008E778093E80088E0FE0147
:101B5000A1EDB2E001900D928A95E1F7DF91CF916E
:101B600008951F93CF93DF93182FD0E0C0E08933FF
:101B700011F4C0E5D0E0812F0E94E908209731F4EC
:101B8000812FDF91CF911F910C940C088FE99FE07A
:101B90000197F1F700C000002197F0CF0F931F933A
:101BA000CF93DF93C62FD42F022FFC01828188238D
:101BB000A1F06093EB020E944B059093EA028093A0
:101BC000E902C77081E001C0880FCA95EAF7DF918A
:101BD000CF911F910F910C940D068091EB02681329
:101BE00035C08091E9029091EA020E943C05883C50
:101BF000910560F510E21D0FCD17B9F080E28C0F52
:101C0000883040F4C77081E001C0880FCA95EAF7B8
:101C10000E940206183048F481E09D2F977001C0A1
:101C2000880F9A95EAF70E940D06802F0E94B10D49
:101C3000183098F4D77081E001C0880FDA95EAF780
:101C4000DF91CF911F910F910C940206C77081E034
:101C500001C0880FCA95EAF7F3CFDF91CF911F91AA
:101C60000F9108958091BD0280FD0AC0E7ECF1E07C
:101C7000118210821282339651E0E53EF507C1F7DA
:101C8000539A3BB1377F2BB128604FB7F89487EC5C
:101C900091E0FC015191CF0168E02BB9000000C038
:101CA00057FF3BB9550F000000C000C000C03BB952
:101CB00000C06A9591F7F1E0853E9F0751F74FBF4D
:101CC0008FE594E00197F1F700C000000895EF92CE
:101CD000FF921F93CF93DF93EC0187ECE82E81E016
:101CE000F82E10E08C8197014091C0026091BF02F4
:101CF000810F0E947806175E83E0E80EF11C1A3F00
:101D000089F70E94320E9A818C8190FF08C08F5F04
:101D10008C83DF91CF911F91FF90EF9008958150B8
:101D2000F7CFBF92CF92DF92EF92FF920F931F9364
:101D3000CF93DF93FC018281DD24DA9480FD02C021
:101D4000DD24D39407EC11E0D0E0C0E02AE0B22E0D
:101D5000F80111821082128294E0E92EF12CC12C3C
:101D60008091C4018C0D8B300CF43DC06B2D0E9412
:101D70001E2B892F082E000C990B8C179D0791F4B0
:101D80008091C0028E9DA0018F9D500D112455950C
:101D900047955595479598016091BF028091BE0285
:101DA0000E947806CD0CF1E0EF1AF108C9F62196F1
:101DB0000D5F1F4FCA30D10559F60E94320E809137
:101DC000C40191E0D91215C0811111C089E080933E
:101DD000C401DF91CF911F910F91FF90EF90DF90A1
:101DE000CF90BF90089587FFC5CF865FC3CF815046
:101DF000EECF90E00196BE010E94402BE8CF0F93FA
:101E00001F93CF93DF93C7ECD1E0FE0111821082C4
:101E10001282339681E0E53EF807C1F710E000E05A
:101E20008091C501082E000C990B081719078CF139
:101E300080911001082E000C990B801791074CF12E
:101E40009E014091C0026091BF028091BE020E943B
:101E500078060F5F1F4F23960A30110509F70E947D
:101E6000320E80910F019091C501980F9093C5019A
:101E700020911001280F20931001121614F49930AC
:101E80001CF0819580930F01DF91CF911F910F91ED
:101E90000895198218821A82DCCF8F929F92AF9296
:101EA000BF92CF92DF92EF92FF920F931F93CF9347
:101EB000DF93EC014C81042F10E09801D8010E94BF
:101EC000752C9B01AC010E94402C4B015C01E0E2AF
:101ED000F0E0E01BF10BA5E5B0E0AC019B010E9436
:101EE000402C6B017C019F01DF010E94612B9B0153
:101EF000AC010E944B2C9B01AC01280D391D4A1DE1
:101F00005B1DC701B6010E94532CF22E822F90E078
:101F100039E23F15D8F143E0249F90011124359513
:101F20002795122F109597ECC92E91E0D92E00E03D
:101F300085E5E82EEF188E2D01FD8F2D9601412F9E
:101F40006091BF020E9478060F5F53E0C50ED11C5E
:101F50000A3089F70E94320E9C8181E0992319F0A2
:101F6000903219F48FEF8093110180911101890F44
:101F70008C83DF91CF911F910F91FF90EF90DF90B5
:101F8000CF90BF90AF909F908F90089525E530E05F
:101F9000A901481B590BCA019A01220F331F280FB0
:101FA000391F37FFBCCF2F5F3F4FB9CFEF92FF9262
:101FB0000F931F93CF93DF938C01C7ECD1E0F12CEB
:101FC000E12CF80194816091BF028091BE02F5E09E
:101FD000EF16F104FCF49923F9F09E014091C00240
:101FE0000E9478062FEFE21AF20A23968AE0E8169A
:101FF000F10439F70E94320EF801848190E00196D5
:10200000817099278483DF91CF911F910F91FF9069
:10201000EF900895992309F39E0140E0E1CF90915C
:10202000BD0290FF0CC0E7ECF1E081836083428346
:10203000339691E0E53EF907C1F70C94320E08950E
:102040000F931F93CF93DF9300D00F92CDB7DEB7DE
:102050008C018091C60181110AC09E012F5F3F4F04
:1020600048E76FEF0E9478068A818093C601F801E5
:102070006481613069F08091C60140E0662361F0BF
:1020800040E0623011F44091C60180E060E004C09D
:102090006091C60140E080E00E940F10F801848149
:1020A00090E0019663E070E00E94402B84830F90E3
:1020B0000F900F90DF91CF911F910F910895CF93C3
:1020C000DF9300D00F92CDB7DEB79091BD0290FFA5
:1020D0000AC09E012F5F3F4F0E9478064B816981A5
:1020E0008A810E940F100F900F900F90DF91CF9177
:1020F0000895CF93DF93EC01EC81F0E0E257FD4FC0
:102100004491EDEBF2E0628181810E945F108C814D
:102110008F5F8C83DF91CF910895CF93DF93EC0194
:10212000EDEBF2E0438162818C810E945F108C8133
:102130008F5F8C83DF91CF910895CF93DF93FA0166
:102140006230710519F42230310539F08FEF818347
:1021500081E090E0DF91CF910895499B33C0599A77
:10216000519A47E050E05898EC01288130E0042E65
:1021700002C0359527950A94E2F720FF25C0599AA9
:10218000589A4150510978F72AE12A95F1F700C091
:102190005198599A118287E090E05898589A29B13D
:1021A00021FBAA27A0F9B0E0AD01082E01C0440F21
:1021B0000A94EAF72181242B2183019770F790E09C
:1021C00080E0C8CF5998CCCF5998DACF4F925F9220
:1021D0006F927F928F929F92AF92BF92CF92DF9237
:1021E000EF92FF920F931F93CF93DF93FC016280D6
:1021F000448081E08483EEE8F2E07490EDE0F3E067
:10220000E491C5EED1E037ECE32E31E0F32E47E167
:10221000C42E42E0D42E52E0A52EBB24B3948824D1
:102220008A94912C55245A94E7190E2F10E082E0DD
:10223000861530F08091BE0288838091BF02898329
:10224000411021C01B821A8297014A8169818881CD
:102250000E947806259683E0E80EF11CCC16DD0678
:1022600031F7DF91CF911F910F91FF90EF90DF90A9
:10227000CF90BF90AF909F908F907F906F905F9026
:102280004F900C94320E8B818823E9F081508B8320
:10229000859DC00111246C8170E00E942C2BFB01F4
:1022A000FF27E257FD4F8491E82FE719E59DC00114
:1022B0001124B8010E942C2B8091C002689FB001AC
:1022C00011247A83C1CF0E94BC2B2091C002269595
:1022D00021582A9DA0012B9D500D1124452F5527D3
:1022E000841795070CF0B0CF82E0861588F40E9421
:1022F000BC2BB4010E94402B88830E94BC2B2091F0
:10230000BF022695622F70E00E94402B280F298380
:102310001A828091C002893C20F088EC8C838B83E8
:1023200093CF8431D8F784E1F9CF6AEE7EEF90E065
:1023300080E00E940B2C60E082E090E00E94ED2B98
:1023400060E083E090E00E94ED2B10927E021092FC
:102350007F02109280021092810260E084E090E09F
:102360000E94ED2B60E082E290E00E94ED2B60E0A5
:1023700085E090E00E94ED2B60E086E090E00E9416
:10238000ED2B6FEF87E090E00E94ED2B40E050E0F6
:10239000BA0188E090E00E94FF2B60E08DE090E0C1
:1023A0000E94ED2B40E050E0BA0188E190E00E94ED
:1023B000FF2B60E087E190E00E94ED2B40E050E0D1
:1023C000BA018CE190E00E94FF2B70E060E080E2B7
:1023D00090E00E940B2C40E050E0BA0188E190E0D0
:1023E0000E94FF2B40E050E0BA018FE090E00E9495
:1023F000FF2B40E050E0BA0183E190E00C94FF2B0A
:10240000CF92DF92EF92FF926B017C010E946206F5
:10241000B701A60188E090E0FF90EF90DF90CF90A9
:102420000C94FF2B5F926F927F928F929F92AF924C
:10243000BF92CF92DF92EF92FF920F931F93CF93B1
:10244000DF9300D00F92CDB7DEB7182F762E042F72
:10245000622E9091BD0290FF29C0E92FE695AE2F24
:10246000B0E0A95DBE4F8C918093BB029E7F9230FD
:1024700081F59E012F5F3F4F812F0E9478064B818F
:1024800069818A810E940F101093BE027092BF0270
:102490000093C002662051F06091BD027091BE02AF
:1024A0008091BF029091C0020E9400120F900F9085
:1024B0000F90DF91CF911F910F91FF90EF90DF90E0
:1024C000CF90BF90AF909F908F907F906F905F90D4
:1024D0000895823019F40091C002D6CF863019F4E5
:1024E0001091BE02D1CF8930D9F3893169F6E95113
:1024F0008E2F8170582EE695F0E0E757FD4FA5909E
:10250000B490BB2487ECE82E81E0F82ED12CC12CAE
:102510009AE0892E912CC601B4010E942C2B812FA8
:10252000511013C0860F9701402F672D0E94780627
:10253000CA0CDB1C83E0E80EF11C85EEE81681E096
:10254000F80649F70E94320E9FCF861BECCFEDEBC9
:10255000F2E0438121E1421B08F440E021E0628186
:1025600081810C941212EDEBF2E0438121E1420FE4
:1025700008F44FEF21E0628181810C941212EDEB9F
:10258000F2E0628121E1621B08F460E021E0438116
:1025900081810C941212EDEBF2E0628121E1620F75
:1025A00008F46FEF21E0438181810C941212EDEB6E
:1025B000F2E0818121E0438162818A500C94121201
:1025C000EDEBF2E0818121E043816281865F0C9432
:1025D00012128091C102882319F081508093C102A8
:1025E0006091BD027091BE028091BF029091C002C5
:1025F0000C9400128091C102833018F48F5F809395
:10260000C1026091BD027091BE028091BF029091A3
:10261000C0020C940012EDEBF2E083E080831182A3
:102620008FEF828388E78383148260817181828146
:1026300093810C94001210927C02E8EBF1E086E0AA
:10264000DF011D928A95E9F70C946C071F93CF93D5
:10265000DF93CDB7DEB7AA970FB6F894DEBF0FBEF3
:10266000CDBF8DED92E02091F100DC012D93CD01E5
:10267000B2E0853E9B07B9F78091DE02833009F412
:1026800071C0B8F4813009F448C0823009F4B2C096
:102690008091E80083FF3AC18091DD029091DE02D3
:1026A0009A3008F033C1E92FF0E0EE5CF14D0C9464
:1026B000542B8A3009F48DC08B3009F470C08930F6
:1026C00039F78091DD02813219F78091E102909112
:1026D000E202009711F00297D9F68091E800877F17
:1026E0008093E8008091E80082FF37C09091F3006A
:1026F0008091F200029729F48091F1008B7F813064
:1027000021F48091F1008093D0028091E8008B77D2
:102710008093E8000E941504BBCF8091DD02813ACE
:1027200009F0B6CF8091E800877F8093E800809120
:10273000E1029091E202892B61F468E081ED92E080
:1027400070E00E94C7048091E8008B778093E800D6
:102750009FCF60E090E080E0F3CF8091DB028111B9
:10276000C1CF96CF8091DD02813A09F091CF80915F
:10277000E1029091E202892B09F08ACF8091E80072
:10278000877F8093E8008091E80080FFFCCF8091F4
:1027900026018093F1008091E8008E77B9CF809177
:1027A000DD02813209F074CF8091E1029091E20262
:1027B000892B09F06DCF8091E800877F8093E80036
:1027C0000E9415048091DF02809326010E941B1352
:1027D0005FCF8091DD02813209F05ACF8091E8000D
:1027E000877F8093E8000E9415048091E002809327
:1027F000CF024ECF8091DD02813A09F049CF80911E
:10280000E800877F8093E8008091E80080FFFCCF9C
:102810008091CF02BECF803899F0823809F076C01F
:102820008091E1028F70873008F070C08093E900DA
:102830008091EB0085FB882780F91092E90006C0A3
:102840008091D9029091DA02911182609091E80012
:10285000977F9093E8008093F1001092F1008091AF
:10286000E8008E77B5C1882309F4A2C1823009F04F
:102870004DC08091DF028111A6C18091E1028F706D
:102880002FEF280F263008F041C08093E9002091F7
:10289000EB0020FF98C1933031F48091EB0080620F
:1028A0008093EB0090C19091EB0090619093EB00CE
:1028B00021E030E001C0220F8A95EAF72093EA0078
:1028C0001092EA008091EB008860EACF81111EC06F
:1028D0001091DF021F778091E3008078812B809335
:1028E000E3008091E800877F8093E8000E94150450
:1028F0008091E80080FFFCCF8091E30080688093A6
:10290000E30082E0111183E08093DB028091E80014
:1029100083FF0AC08091E800877F8093E800809160
:10292000EB0080628093EB00AA960FB6F894DEBFAE
:102930000FBECDBFDF91CF911F9108958058823097
:1029400028F72091DF023091E0022C3DE3E03E07C2
:10295000A1F583E08A838AE289834FB7F894DE0188
:10296000139620E03EE051E2E32FF0E05093570051
:10297000E49120FF03C0E295EF703F5FEF708E2F70
:1029800090E0EA30C0F0C7968D939D932F5F24317D
:1029900059F74FBF8091E800877F8093E8006AE293
:1029A00070E0CE0101960E94C7048091E8008B7709
:1029B0008093E800ABCFC096E7CF8091E102909181
:1029C000E202432F55274330510509F44AC078F5F8
:1029D0004130510509F47AC08BE590E0E3E1F6E07F
:1029E0004230510509F092CF2091E800277F2093D3
:1029F000E8002091E3023091E4028217930708F483
:102A00009C0140E02115310509F065C0411163C00A
:102A10008091E80082FDC9CF8091DB02882329F2F2
:102A2000853019F28091E80083FFF2CFBECF4132AA
:102A3000510509F43CC04232510509F067CF83309B
:102A4000910508F063CFFC01EE0FFF1FE855FE4F24
:102A50000190F081E02D8B559E4FDC018C9190E030
:102A60001AC0332721303105D1F02115310561F02D
:102A70002230310509F04ACFE0E8F6E0E4918E2FEC
:102A800090E0E0E8F6E007C0E0EAF6E0E4918E2F9F
:102A900090E0E0EAF6E0009709F438CFA5CFE2E94C
:102AA000F6E0E4918E2F90E0E2E9F6E0F4CF833097
:102AB000910508F02BCF880F991FFC01E255FE4FBE
:102AC0000190F081E02D89E090E08ECF82E190E0EE
:102AD000EEE6F6E089CF8091DB02882309F465CF2A
:102AE000853009F462CF8091E80083FD5ECF80914C
:102AF000E80082FD8DCF8091E80080FF83CF909128
:102B0000F3008091F2002115310519F0883091050C
:102B100050F041E0089709F040E08091E8008E779E
:102B20008093E8006FCF44914093F100319621509B
:102B300031090196E8CF803809F0E8CE8091E800AD
:102B4000877F8093E8008091DC028093F10087CE3C
:102B50008111DCCE1091DF02123008F0D7CE8091C7
:102B6000E800877F8093E8001093DC020E94150440
:102B7000112311F084E005C08091E30087FDFACFB6
:102B800081E08093DB0242E061EC81E00E9434044A
:102B900042E261EC84E00E94340442E261EC82E0B3
:102BA0000E94340442E260EC83E00E943404AECE22
:102BB0008091DF02813009F0A9CE81E0933009F0E5
:102BC00080E08093DA021092E9008091E800877F2C
:102BD0008093E8000E94150499CE9091BD0290FF69
:102BE0003DC09170811129C092609093BD0266230F
:102BF00051F06091BD027091BE028091BF02909130
:102C0000C0020E9400126091BD02669570E04BE028
:102C100050E084E091E00E94CC2B892BA9F0109227
:102C2000BC0281E08093930220E04091C002609159
:102C3000BF028091BE020C9412128B3210F0946588
:102C4000D4CF880F982BD1CF81E08093BC020E9413
:102C50004B059093910280939002E3CF0895809169
:102C6000BD028695815009F48AE261E00C94ED156D
:102C70008091BD0286958F5F8B3208F081E061E024
:102C80000C94ED159091BD0290FF07C09695981792
:102C900020F0961710F40C94381661E00C94ED15A2
:102CA0003F924F925F926F927F928F929F92AF92DC
:102CB000BF92CF92DF92EF92FF920F931F93CF9329
:102CC000DF9300D000D000D0CDB7DEB78C01FC017F
:102CD00083819481892B31F08081918189238F3F79
:102CE00009F065C626960FB6F894DEBF0FBECDBFBD
:102CF000DF91CF911F910F91FF90EF90DF90CF90D8
:102D0000BF90AF909F908F907F906F905F904F900B
:102D10003F9008950E943A0CF82E682F89819A817D
:102D20000E94CC0569817A818F2D0E94A30A7C01C3
:102D3000F801D280DD2009F42FC682519F454097CB
:102D400008F0EFC58FEF93E00E94D92BFEEEEF0E57
:102D500057EE852E99249394882389F180917902E6
:102D6000877009F4BFCFF8018281882309F4BACFB4
:102D700082E026960FB6F894DEBF0FBECDBFDF917E
:102D8000CF911F910F91FF90EF90DF90CF90BF9068
:102D9000AF909F908F907F906F905F904F903F90FB
:102DA0000C94320A811424E09206C1F2C4010E94FC
:102DB000D92B811101C0EA943FEF831A930AE110E5
:102DC000F1CF1C821B82442443944AE0342E7401C8
:102DD0008FEFE81AF80AC4010E94D92B89831A825E
:102DE000882309F4BBCF9FEF980F933000F58A83B7
:102DF000498292E0890E911CC7010E94D92B8B83D6
:102E0000882309F4ABCFFE0131967F01F7012081C1
:102E10002223E9F2213009F049C091818281913069
:102E200041F4F2E0EF0EF11C0E94B10D09C0470120
:102E3000EACF923049F422E0E20EF11C0E94E90848
:102E40003FEFE31AF30AE2CF933031F432E0E30EBE
:102E5000F11C0E940C08F4CF943021F08FEFE81A97
:102E6000F80AEECF92E0E90EF11C30E020E0B70165
:102E70006F5F7F4FF70141818053990B8A30910535
:102E800050F021503109E0F28FE99FE00197F1F70E
:102E900000C00000F6CF329EF001339EF00D1124E9
:102EA0009C012E0F3F1F842F7B01E1CFE22FF0E02A
:102EB000E258FA4F5490822F86958695869590E039
:102EC000FC01E259FA4F64902770712C022E02C067
:102ED000759467940A94E2F7E1E06E227724FC018E
:102EE000E25AFA4FA490B12C022E02C0B594A794D6
:102EF0000A94E2F7F1E0AF22BB24FC01E25BFA4F57
:102F0000C490D12C02C0D594C7942A95E2F721E051
:102F1000C222DD246114710419F081EE0E94E908D7
:102F2000A114B10419F086EE0E94E908852D0E94D3
:102F3000B10DAB2819F086EE0E940C08672819F035
:102F400081EE0E940C08CD2809F47ACF8CE26CCF78
:102F500081E00E944E0A0E94F30900CF81E00E94A6
:102F60000F0AF9CF82E0F5CFF1E6EF16FDE5FF0697
:102F700081F122E6E2162DE5F20609F0ECC4DD202F
:102F8000B1F181E080931B02E9CE0E9430072983D2
:102F90004B835C836D837E83532FDD2051F0516022
:102FA0005A8349816B817C818D819E810E941107AA
:102FB000D5CE5E7FF5CF0E94300729834B835C839B
:102FC0006D837E83532FDD2011F05260E9CF5D7F4A
:102FD000E7CF0E94300729834B835C836D837E8318
:102FE000532FDD2011F05460DBCF5B7FD9CF1092DF
:102FF0001B02B4CE25EFE2162CE5F20609F469C0F7
:1030000008F463C027E245EE66EE86EFE8168CE52D
:10301000F80609F4BDC4DD2009F4DAC41092EB020D
:1030200092E0E9169CE5F90608F447C1E6E1EE16E0
:10303000ECE5FE0630F0C7018A5F9C45099708F071
:103040003CC10E946F0A9093830280938202F0E158
:10305000EF16FCE5FF0609F4FFC008F078C038E081
:10306000E3163CE5F30609F4E5C008F048C094E037
:10307000E9169CE5F90609F4D1C090F5F2E0EF16E7
:10308000FCE5FF0609F4C4C080918202826023E05F
:10309000E2162CE5F20609F4BEC060918202F090BF
:1030A000830284E090E00E94ED2B6F2D82E290E09D
:1030B0000E94ED2B0E941B1351CE27E245EE65EED8
:1030C00067C426E241EE60EE63C427E245EE64EE9B
:1030D0005FC426E241EE62EE5BC428E241E0EFCF3E
:1030E00080918202806136E0E3163CE5F30609F444
:1030F00092C008F497C08091820280628CC0809157
:1031000082028D7F9CE0E9169CE5F90609F483C0F4
:1031100078F4809182028C60FAE0EF16FCE5FF06FD
:1031200009F479C008F48AC0809182028E7F73C04E
:1031300080918202877F3EE0E3163CE5F30609F4C6
:103140006AC008F481C0809182028F7E64C09BEFC8
:10315000E9169CE5F90609F469C068F5F3E1EF1694
:10316000FCE5FF0609F480C090F431E1E3163CE58C
:10317000F30609F475C082E1E8168CE5F80609F05B
:103180008CCF0E941B13809182028F7744C095E1FF
:10319000E9169CE5F90609F46FC008F483C0809134
:1031A00083028160FAEFEF16FCE5FF0609F075CFA8
:1031B0008093830272CF2FEFE2162CE5F20609F41A
:1031C00057C090F48DEFE8168CE5F80609F440C07E
:1031D000809183028E7F9EEFE9169CE5F90640F30D
:1031E000809183028360E4CFE1E0EE16EDE5FE0618
:1031F00009F461C008F44CC060E022E0E2162DE55D
:10320000F20609F04ACF8EE090E00E94ED2B45CF08
:10321000809182028160809382023FCF80918202FE
:103220008460F9CF809182028860F5CF809183021B
:103230008260BECF809182028064EDCF0E941B131A
:10324000809182028068E7CF809182028B7FE3CFFA
:10325000809183028D7FACCF809182028F7DDBCF06
:10326000809182028F7BD7CF80918202837FD3CFE0
:10327000809183028C7F9CCF8091820282FB992770
:1032800090F921E0922790FB82F990FB83F9C3CF5C
:1032900080918302982F909591708E7F892B90FB5F
:1032A00081F986CF0E941B1390918202892F97FB90
:1032B00087F98058B0CF61E0A6CF80917C0236E1DB
:1032C000E3163CE5F30609F09CC38A7A91E009F421
:1032D00090E090931C0269E2811165E386EB91E036
:1032E0000E9457050E94770539CD85E37CC3809104
:1032F000BD0280FF1BC08E7F8093BD026091BD0226
:103300007091BE028091BF029091C0020E94001293
:103310001092BC028FEF90E7E2E081509040E040D5
:10332000E1F700C000000E94320E18CD816080934A
:10333000BD0261E086950E94ED1510CD4FE256E189
:1033400068E376E10E945D0609CD48E356E16FE24D
:1033500076E1F8CF40EE52E167ED72E1F3CF4FEB4B
:1033600052E16BEC72E1EECF47EA52E163EB72E1BE
:10337000E9CF43EB52E167EA72E1E4CF4AEF52E171
:1033800069EE72E1DFCF61E081E0D5CF65E082E0F8
:103390000E944216E3CC68E086E0FACF64E18FE059
:1033A000F7CF67E185E1F4CF62E289E1F1CF61E037
:1033B00083E2C1CF9BE5E9169DE5F90611F1ECE545
:1033C000EE16EDE5FE0609F04EC38091830282FB06
:1033D000882780F991E089270E94FF0C44C30E944E
:1033E0001B13FFEF24E33CE0F15020403040E1F7B5
:1033F00000C000000E942B050E949511AFCC81E017
:10340000EBCF80E0E9CFC7010E94A405D82E3AC3D4
:103410002F2D2F70A22E8F2D807F19F0A29490EF68
:10342000A922DD20C9F0AA2069F080E28E0D883043
:1034300010F081100BC080917C02A82AA0927C021F
:103440000E9477058E2D0E94E90819C080917B02A9
:10345000A82AA0927B02F4CF8E2D0E940C08AA20ED
:1034600071F0A09480E28E0D883010F081103DC084
:1034700080917C02A822A0927C020E947705E32D15
:10348000E850FF0B349710F40E945106CC2009F449
:1034900029CC8091790280FD25CCF8011282859596
:1034A000859585950E944E0AC8010E94501680910C
:1034B000790285958595859526960FB6F894DEBF99
:1034C0000FBECDBFDF91CF911F910F91FF90EF9075
:1034D000DF90CF90BF90AF909F908F907F906F9034
:1034E0005F904F903F900C940F0A80917B02A8222E
:1034F000A0927B02C2CF3F2D3F70932E8F2D807FF5
:10350000803219F0929480EF9822882071F081E047
:10351000881681F1DD20D9F1AA2091F1F801858189
:1035200080FF90CF8F7085832BC0DD20B1F090910C
:103530007D02892D892BA11003C00E940D069FCF0B
:10354000E1E0AE12FACF2091830222FD98CF9817C6
:1035500009F495CF80937D0292CFA11006C00E94FE
:103560007105892D0E9402068ACFF1E0AF1609F499
:1035700086CFF5CFDD2031F025E02A1508F47FCF86
:10358000892DDBCF34E03A1508F479CFEACFAA20B1
:1035900041F3F9E38F12BEC12FEF37EE83E02150E4
:1035A00030408040E1F700C00000B4C18F2D869507
:1035B0008695837061F0813009F061CFC701937007
:1035C000D11002C090E080E00E94170658CFC701DA
:1035D0009370D11002C090E080E00E942D064FCF82
:1035E0008E2DDD2031F10E948F08EE2DE45FFF0B60
:1035F000E530F10508F521E030E0790101C0EE0C7D
:10360000EA95EAF70E94300729834B835C836D8338
:103610007E83532F5E29D11003C05E2D5095532316
:103620005A8349816B817C818D819E810E94110723
:1036300026CF0E949307D9CF0E94510720CF8F2D0C
:10364000837009F066C0D1101ACF8E2D82958695B1
:103650008770880F880F6E2D6F70462E512C712C3D
:10366000612C082E04C0440C551C661C771C0A945F
:10367000D2F740E050E0BA01E4FE0FC04FE050E066
:1036800060E070E004C0440F551F661F771F8A95E5
:10369000D2F740955095609570958F2D86958695BB
:1036A0008370823019F1D8F480907E0290907F026E
:1036B000A0908002B0908102813069F044295529A0
:1036C00066297729CB01BA01682179218A219B21BA
:1036D0000E948907D4CE482859286A287B28CB0124
:1036E000BA016429752986299729F2CF44295529D9
:1036F0006629772940907E0250907F026090800278
:1037000070908102CB01BA01642575258625972525
:10371000DFCF8695DD2011F08F2D8170882309F48D
:10372000AECE8E2D829586958770880F880F6E2D70
:103730006F70462E512C712C612C082E04C0440C45
:10374000551C661C771C0A94D2F740E050E0BA0181
:10375000E4FE0FC04FE050E060E070E004C0440FB2
:10376000551F661F771F8A95D2F740955095609533
:1037700070958F2D869586958370823019F1D8F4D7
:103780008090E5029090E602A090E702B090E802F7
:10379000813069F04429552966297729CB01BA017E
:1037A000682179218A219B210E94E70968CE482857
:1037B00059286A287B28CB01BA01642975298629F2
:1037C0009729F2CF44295529662977294090E502A7
:1037D0005090E6026090E7027090E802CB01BA01D7
:1037E0006425752586259725DFCFFF2DFF70FF2ED9
:1037F000DD2029F08F2F0E944E0A8E2D9ECE8E2D19
:103800000E9402068F2D0E940F0A39CE8E2D22EFC4
:10381000821609F456C0281578F030EF831641F16E
:1038200091EF891609F445C0DD2009F46EC0A1109E
:1038300009CE8F2D8F7142C0E3EF8E1609F446C07A
:10384000F4EF8F12F1CFDD2009F454C08F2D8F716A
:10385000F82E0E944E0A8091830282FD07C0E8E0A4
:10386000FE9EC00111248360809379028F2D26C0B3
:10387000DD20D1F024E02A1508F401CE2F2D2F7180
:1038800061E070E080E090E004C0660F771F881F61
:10389000991F2A95D2F74090E5025090E602609079
:1038A000E7027090E8029CCF35E03A1508F4E7CDC6
:1038B000E5CF8F2D8F71DD2009F4A5CF0E944E0A30
:1038C000DECD8F2D8F71DD20C9F39DCF60E070E0DC
:1038D000CB01DD2009F468CF2F2D2F7161E070E05E
:1038E00080E090E004C0660F771F881F991F2A951B
:1038F000D2F75ACF81E00E94320AF1E0FA1508F0BF
:10390000BECD82E00E94320ABACDAA2039F08933B6
:1039100009F442CE8E2D0E940C08B1CD8F2D8F71EF
:1039200072CFF0E1EF16FFE5FF0609F411CB21E1BC
:10393000E2162FE5F20609F415CB80E6E8168DE5D0
:10394000F80609F438CB08F00FCBEFE5EE16EDE5FD
:10395000FE0609F41ACB33EFE3163CE5F30609F44F
:10396000B0CB08F047CB98EDE9169CE5F90609F4D1
:10397000A4CBE9EDEE16ECE5FE0609F4AECBF7EDCF
:10398000EF16FCE5FF0609F046CB26E241EE61EEBC
:10399000C8010E94CE0DE2C980319F4509F4DECAFC
:1039A00081E1E8168FE5F80641F682E0D8CA85E0A5
:1039B000DE01119601900D928A95E1F7F8012281BE
:1039C00089819A812111A6C90E94A405F82EAAC94D
:1039D000F6E1EF16FCE5FF0609F045C080911C02F8
:1039E000811183CC89E2E8EBF1E02EEB31E091919B
:1039F000891303C0DF0111971C922E173F07B9F7F7
:103A000071CC82722CECE2162CE5F20609F4B6CCED
:103A100008F0A5C096ECE9169CE5F90609F49ACCE5
:103A200008F074C0F3ECEF16FCE5FF0609F486CC51
:103A300008F05BC032ECE3163CE5F30609F457CC22
:103A4000FAE5EF16FDE5FF0609F4D9CC08F0B2CC93
:103A5000E1143CE5F30609F4C2CC8EEDE8168CE5E2
:103A6000F80609F4C9CCF8018281E080F18088234E
:103A700009F4C9CCC7010E943A0CD82E682FC7019F
:103A80000E94CC05B7018D2D0E94B00A7C01882EC2
:103A9000F801D280A580A2943FE0A3228091790210
:103AA0008770A1F0CD2CDD2091F08F2D807F8034A8
:103AB00021F080E28E0D883048F082E00E94320AC8
:103AC000809179028770CC24C3948111C12C3F2C42
:103AD00032942FE03222FBE0F31508F4D0CCE32D32
:103AE000F0E0E45CF14D0C94542B94ECE9169CE569
:103AF000F90609F42ACC47ED52E160EE72E1E5ECFB
:103B0000EE16ECE5FE0609F41DCC9ACFF9ECEF16A3
:103B1000FCE5FF0609F428CC88F437ECE3163CE515
:103B2000F30609F41CCC4BEC52E16FEB72E198EC1C
:103B3000E9169CE5F90609F405CC82CFEAECEE160D
:103B4000ECE5FE0609F415CC49EE52E16AEF72E1AC
:103B5000FBECEF16FCE5FF0609F4F4CB71CF21ED89
:103B6000E2162CE5F20609F419CCB8F48EECE8164E
:103B70008CE5F80609F40ACC08F405CCEFECEE1657
:103B8000ECE5FE0609F407CC6EE089E0F0EDEF16F7
:103B9000FCE5FF0609F4FCCB53CF24EDE2162CE53F
:103BA000F20609F401CC78F482EDE8168CE5F8060B
:103BB00009F4F7CB61E088E193EDE9169CE5F9069D
:103BC00009F4B9CB3DCFE5EDEE16ECE5FE0609F4C0
:103BD000EECB6AE285E2FDE5EF16FF0609F4D8CBED
:103BE0002FCF1F93CF93DF9380912302807FA9F47F
:103BF00080912002882389F080915502D09124027F
:103C000060911E0270911F02A0912102B0912202C8
:103C1000C62FC72316E0D81304C0DF91CF911F91A0
:103C2000089590E0109711F0CF3F19F40196877036
:103C3000F2CF189F9001199F300D1124F901EB5D0F
:103C4000FD4F41814713F2CF40814613EFCF4281B0
:103C50004111ECCF438154814A1B5B0B483C510519
:103C600028F7809123028F70806180932302F901ED
:103C7000E65DFD4F80818F70806180838EE192E0F0
:103C80000E945016DF91CF911F910C94F805AF92CE
:103C9000BF92CF92DF92EF92FF920F931F93CF9339
:103CA000DF93CDB7DEB761970FB6F894DEBF0FBED6
:103CB000CDBF8C0185E0F801DE011D9601900D92CB
:103CC0008A95E1F7F80180819181E2802EE1A22EB0
:103CD00022E0B22E609121027091220261157105DD
:103CE00009F42BC130911E0240911F02232F24237F
:103CF0002F3F09F422C1C380D480F0902002F60146
:103D0000E61BF70BFF2009F4FBC020912302522F82
:103D1000507FE83CF10508F0BBC0511178C0FE2C83
:103D2000491321C038131FC0E1101DC02F7020613E
:103D300020932302C5010E94501680912302F801AE
:103D400085838F2D61960FB6F894DEBF0FBECDBF71
:103D5000DF91CF911F910F91FF90EF90DF90CF9067
:103D6000BF90AF900895CD2829F0282F29232F3F09
:103D700009F001C120E0F22FF170DF2E20FF3DC0DD
:103D8000209155024091240256E0241315C08D87DE
:103D90009E878D859E850E947C0C292F22952F70F1
:103DA0002230F8F0243020F59F70F9F0F801958169
:103DB000907FD9F4D12C1FC030E0529FF001539F67
:103DC000F00D1124EB5DFD4F6181961306C06081FB
:103DD000861303C06281E61210C02F5F3F4F277029
:103DE000D4CF9F7011F0882329F3805E883010F3C0
:103DF000C8010E945016FD2CA4CFEE2009F4A1CFDB
:103E000080912302816080932302F12C9ACF491381
:103E100012C0381310C0E1100EC0F8012583C8018C
:103E20000E94501686E0F801AEE1B2E001900D92DA
:103E30008A95E1F786CF8D879E878D859E850E9426
:103E4000860C882309F1EE20F9F08091230280325C
:103E500070F020911E0230911F0238872F8319863F
:103E6000DB86CA868C87CE0107960E94501686E0B4
:103E7000F801AEE1B2E001900D928A95E1F70E945F
:103E8000F11DFF24F3945DCFC8010E945016F9CFB5
:103E900051110AC08EE192E00E94501686E0F501B1
:103EA00011928A95E9F7B1CF49130FC038130DC0AD
:103EB000E1100BC0F8012583C8010E94501686E06E
:103EC000F50111928A95E9F73CCF8D879E878D8504
:103ED0009E850E94860C8823B9F2EE20A9F280917B
:103EE0002302803220F220911E0230911F023A8379
:103EF00029831B82DD82CC828E83CE010196B5CFD1
:103F0000E83CF105E0F6FE2CEE2009F4BDCF4913A4
:103F100003C0381709F486CF8D879E878D859E85CF
:103F20000E94860C8111A3CF80912302816080932F
:103F30002302C8010E94501604CFEE2009F4A4CF3A
:103F40008D879E878D859E850E94860CF82E8823FE
:103F500009F49ACF86E0F801AEE1B2E001900D924B
:103F60008A95E1F780911E0290911F020E947C0CBD
:103F70000E94F11DE6CE21E02E25FDCE1F93CF93AA
:103F8000DF93CDB7DEB767970FB6F894DEBF0FBEED
:103F9000CDBF342F4B8B252F5C8B6D8B7E8B8F8B06
:103FA0008E899F89611110927B021A8A198A3D8736
:103FB0002E876F87998B888B86E0FE013D96DE0108
:103FC000179601900D928A95E1F7CE0107960E940F
:103FD000471E882389F016E08091550290912402B3
:103FE000891349C067960FB6F894DEBF0FBECDBFE8
:103FF000DF91CF911F91089586E0FE013796DE0193
:10400000119601900D928A95E1F78A859B85892BFF
:1040100011F38F81988589238F3FE9F22091240243
:1040200030E0C901019687709927409155024817E1
:10403000190671F40E941B1310922402109255026B
:1040400086E0EEE1F2E0DF011D928A95E9F7C3CF49
:1040500096E0929FD001939FB00D1124AB5DBD4FB0
:10406000FE01319601900D929A95E1F7809324021A
:104070000E94F805B0CF819FC00111248B5D9D4F38
:104080000E94471E882309F4ADCF8091550290E02D
:10409000019687709927809355029ECF2F923F9269
:1040A0004F925F926F927F928F929F92AF92BF9248
:1040B000CF92DF92EF92FF920F931F93CF93DF93F4
:1040C000CDB7DEB72A970FB6F894DEBF0FBECDBFCF
:1040D0004CE8842E42E0942E43E851E0E4E8F2E01C
:1040E00010E061E070E03F0140805180DA018D9185
:1040F000AD01A82FA295AF70B0E091962C91919749
:104100008F707B0102C0EE0CFF1C8A95E2F7C7019D
:10411000922F982B91969C93919792969C9192971F
:104120008095892392968C9320EA2A95F1F737E8B7
:10413000232E31E0332E610190E080E0D6010D9115
:104140006D01202F22952F7030E0D9019096EC90D0
:104150009B01082E02C0220F331F0A94E2F7A080B1
:10416000B180F12C0F7002C0F594E7940A95E2F744
:10417000E0FEDCC0209530952A213B21318320834D
:10418000019687309105D1F69A0121503109D90164
:104190000C91202F22952F7030E0D9019196DC9060
:1041A00091970F707B0101C0EE0C0A95EAF70E2D76
:1041B00000950D2191960C93919792960C91929760
:1041C000E02A9296EC92329621E0D301ED90FC9099
:1041D000E414F50409F420E0122B8E169F0609F072
:1041E00082CF41E050E0F10121911F01E22FE295E1
:1041F000EF70F0E061A12F707A0102C0EE0CFF1C9D
:104200002A95E2F79701362F322B31A332A1209560
:10421000232322A320EA2A95F1F77A01082E02C06F
:10422000EE0CFF1C0A94E2F737016094709423E8C7
:10423000C22E21E0D22EE4E8F2E000E05F016081CE
:104240007181D6015D906D01252D22952F7030E092
:10425000D90190962C9130E0B52DBF7002C03595F4
:104260002795BA95E2F720FF64C09B0126213721EC
:10427000318320833296D5012D913C9162177307CB
:1042800009F001E08E169F06C9F6F10131972081F1
:10429000E22FE295EF70F0E0F1A02F70BA0101C0BB
:1042A000660F2A95EAF7362F30953F2131A322A1D8
:1042B000262B22A3102B01968E30910509F093CF67
:1042C0001123D9F181E08093C0010E944B059093A6
:1042D000BF018093BE018091BE019091BF010E94F9
:1042E0003C05069770F1809184029091850290932D
:1042F000C3028093C20280918602909187029093BC
:10430000C5028093C40280918802909189029093A3
:10431000C7028093C60280918A0290918B0290938B
:10432000C9028093C8021092C0010BC02A293B2900
:1043300025CF9B012E293F299BCF8091C001811160
:10434000CACF0E94300729833A834B835C836D83F5
:104350007E838091150190911601892B41F0809107
:1043600012019091130189238F3F09F017C18091A9
:104370001A0190911B01892B41F0809117019091B6
:10438000180189238F3F09F0EFC08091C2019091FD
:10439000C3019C012F5F3F4F3093C3012093C201A3
:1043A00062E370E00E94402B892B09F0D5C019868A
:1043B0008FEF8A878F8388870FEF22E030E0AE018E
:1043C000495F5F4F62E070E0CE0109960E949D1048
:1043D0008885803309F0A4C081E08093C10182E028
:1043E0008987FF24FA94FA86FF82F8860FEF22E08D
:1043F00030E0AE01495F5F4F62E070E0CE010996A8
:104400000E949D10D88483E08987FA86FF82F8860F
:1044100022E030E0AE01495F5F4F62E070E0CE0124
:1044200009960E949D10E88484E08987FA86FF82BD
:10443000F88622E030E0AE01495F5F4F62E070E055
:10444000CE0109960E949D106885062E000C770B00
:10445000880B990B0E94292D4B015C016E2D0E2CAF
:10446000000C770B880B990B0E94292D20E83BE765
:1044700046E05FE30E94B52D2B013C0120ED34EDB9
:1044800049E55FE3C501B4010E94B52D9B01AC0174
:10449000C301B2010E94852C0E94F12C062FEE2D43
:1044A000FF27E1950CF4F095BF01072E000C880B57
:1044B000990B0E94292D20ED34ED49E55FE30E9420
:1044C000B52D2B013C0120E83BE746E05FE3C50149
:1044D000B4010E94B52D9B01AC01C301B2010E9441
:1044E000852C0E94F12C262F80911B028823C9F174
:1044F0008091C2019091C30165E070E00E94402B61
:10450000892B19F421952D830E83D7FE0BC0498189
:104510005A816B817C818D819E810E94110702C02E
:104520001092C101812F2A960FB6F894DEBF0FBEFC
:10453000CDBFDF91CF911F910F91FF90EF90DF9052
:10454000CF90BF90AF909F908F907F906F905F9033
:104550004F903F902F9008958091C101882311F3CF
:104560003ECF0B832C83D1CF80911901882309F48E
:104570000CCF109219010E944B058160782F909307
:104580001B0180931A01409117015091180160910D
:10459000190180911B010E94BE1FF7CE809114016A
:1045A000882309F4E4CE109214010E944B05816027
:1045B000782F90931601809315014091120150912C
:1045C000130160911401809116010E94BE1FCFCE8D
:1045D0001F920F920FB60F9211242F933F934F9378
:1045E0005F936F937F938F939F93AF93BF93CF937B
:1045F000DF93EF93FF93D091E900DF708091EC009F
:10460000C82FC17080FDC0E81092E9008091F000D1
:10461000877F8093F00078940E9426131092E9001F
:104620008091F00088608093F000CD2BCF70C09314
:10463000E900FF91EF91DF91CF91BF91AF919F91F1
:104640008F917F916F915F914F913F912F910F903B
:104650000FBE0F901F9018951F920F920FB60F92DA
:1046600011242F933F934F935F936F937F938F9377
:104670009F93AF93BF93EF93FF938091E10082FFED
:1046800009C08091E20082FF05C08091E1008B7F2C
:104690008093E1008091DA0080FF24C08091D800EF
:1046A00080FF20C08091DA008E7F8093DA008091B5
:1046B000D90080FF9BC080E189BD82E189BD09B43A
:1046C00000FEFDCF81E08093DB028091CE0281115C
:1046D00009C00E949B030E9466048091E2008460EE
:1046E0008093E2008091E10080FF17C08091E2009A
:1046F00080FF13C08091E2008E7F8093E200809162
:10470000E20080618093E2008091D8008062809313
:10471000D80019BC85E08093DB028091E10084FF22
:1047200029C08091E20084FF25C080E189BD82E13B
:1047300089BD89B5982F917080FFFBCF8091D800FB
:104740008F7D8093D8008091E1008F7E8093E1007F
:104750008091E2008F7E8093E2008091E200816090
:104760008093E2008091DC02882309F445C084E054
:104770008093DB028091E10083FF27C08091E200FB
:1047800083FF23C08091E100877F8093E10082E076
:104790008093DB021092DC028091E1008E7F809397
:1047A000E1008091E2008E7F8093E2008091E20040
:1047B00080618093E20042E060E080E00E94340487
:1047C0008091F00088608093F000FF91EF91BF919D
:1047D000AF919F918F917F916F915F914F913F9199
:1047E0002F910F900FBE0F901F90189519BC10922B
:1047F000DB021092CE0276CF8091E30087FD93E03A
:104800009093DB02B7CFCDB7DEB7AA970FB6F89477
:10481000DEBF0FBECDBF84B7877F84BF0FB6F894CD
:10482000A89580916000886180936000109260007C
:104830000FBE80E890E00FB6F894809361009093EB
:1048400061000FBE85B7806885BF85B7806885BF6A
:1048500086E295E09093B5018093B4010E949B039A
:104860000E9466048091E20084608093E200789464
:104870008091DB028823A1F01091E9001F709091D4
:10488000EC00892F817090FD80E8182B1092E900D0
:104890008091E80083FD0E9426131F701093E900A9
:1048A00082E084BD93E095BD9AEF97BD80936E0042
:1048B000A3E8B1E027E831E0AD0161E070E0FA0182
:1048C0008191AF01E82FE295EF70F0E0F1A08F70D9
:1048D0008B0101C0000F8A95EAF7902F90959F21D8
:1048E00091A382A1802B82A32417350741F747E8C3
:1048F00051E065E971E08A01EE24E394F12CF801BE
:1049000081918F01E82FE295EF70F0E0B1A08F70F8
:10491000670101C0CC0C8A95EAF79C2D90959B21EC
:1049200091A382A18C2982A36017710741F701E04E
:1049300010E0FA018191AF01E82FE295EF70F0E00D
:10494000D1A08F70780101C0EE0C8A95EAF79E2DF8
:1049500090959D2191A382A18E2982A3641775074A
:1049600041F741E050E08D91E82FE295EF70F0E0E3
:1049700011A18F70BA0101C0660F8A95EAF7962FD0
:104980009095912391A382A1862B82A32A173B079E
:1049900051F710928502109284021092C302109275
:1049A000C20210928702109286021092C5021092E3
:1049B000C40210928902109288021092C7021092CB
:1049C000C60210928B0210928A021092C9021092B3
:1049D000C80290E080E00E94E72B8A3E9E4F11F0D3
:1049E0000E94951182E090E00E94D92B8093B20240
:1049F0000E946F0A90938302809382020E944E204D
:104A00008FE39CE90197F1F700C000000E944E205F
:104A10008091C20280FF17C06FEF83E290E00E9496
:104A2000ED2B6FEF84E290E00E94ED2B6FEF85E2BB
:104A300090E00E94ED2B6FEF7FEF90E080E00E940E
:104A40000B2C0E942B0583E090E00E94D92B682F4D
:104A500070E090E080E00E9489076091E50270912B
:104A6000E6028091E7029091E8020E948909509A3B
:104A70005198599A83E290E00E94D92B813209F033
:104A80005AC584E290E00E94D92B883009F053C5C2
:104A900085E290E00E94D92B863209F04CC58091C6
:104AA0008C02811136C090E080E00E94E72B8A3EA4
:104AB0009E4F21F00E9495110E940B1388E090E018
:104AC0000E94E12B6093BD027093BE028093BF02EF
:104AD0009093C0026E7F71F40E940B1388E090E007
:104AE0000E94E12B6093BD027093BE028093BF02CF
:104AF0009093C0020E9462061092BC028091BD0297
:104B000080FF04C060E086950E94ED1581E08093EF
:104B10008C0254985C9A3E98469A89B1829581702D
:104B2000369904C290E0892B809398028CE191E041
:104B300090938E0280938D0258E1E52EF12C60E473
:104B4000562E7AECC72E72E0D72E8091DB0200E160
:104B500012E1853009F421C20E944E20882359F0C9
:104B60008FB7F8944091CA025091CB026091CC0269
:104B70007091CD028FBFA2ECB2E0E3EBF2E010E067
:104B800000E0702F8D919D91219131912817390767
:104B900009F413C22827392760E0AA24A394B12C72
:104BA000A50142235323452B09F401C269A37AA32B
:104BB00095012823392391E0232B09F490E09BA34E
:104BC0000E944B058160782F9DA38CA349A15AA117
:104BD0006BA18DA10E94BE1F000F111FF801ED54A3
:104BE000FD4F80819181A826B926B182A082809153
:104BF000BC028823D1F18091BB02E091BD02E69511
:104C0000E81BE0939202823009F0EEC1F0E0E15F30
:104C1000F94FE4910E2F10E099E7A92E90E1B92EFB
:104C200080919302882361F0109293020E944B05B9
:104C300090939102809390021092950210929402A8
:104C40000E944B05E0919002F09191028E1B9F0B08
:104C50008F3F9F4750F4E00FF11FF0939102E093D4
:104C6000900280E992E0F5010995E0919802EE0F3B
:104C7000EE0FE093980289B184FB662460F83699C0
:104C80001FC280E08629E82BE0939802EF70F0E0E5
:104C9000EB56FE4F808190919702890F8093970287
:104CA00020E08430DCF0809196028F5F8093960242
:104CB00081E0809314010E944B058160782F9093CE
:104CC00016018093150140911201509113016091DA
:104CD0001401809116010E94BE1F21E0809197026D
:104CE0008D3FDCF48091960281508093960281E0A2
:104CF000809319010E944B058160782F90931B01CE
:104D000080931A0140911701509118016091190187
:104D100080911B010E94BE1F21E080919702082E06
:104D2000000C990B64E070E00E94402B8093970286
:104D3000222359F08FB7F8944091CA025091CB02C8
:104D40006091CC027091CD028FBF86E0EFE9F2E076
:104D5000DE01119601900D928A95E1F7B090A102C3
:104D6000A090A2021091A3020091A4021092A102AD
:104D70001092A2021092A3021092A4028B2D8A29F3
:104D800009F448C080919D0290919E020E943C05CA
:104D90009C0190919C02992309F4F4C323333105BB
:104DA000C8F19F3F19F09F5F90939C02BB2059F080
:104DB0000E946F089FEF1B140CF491E0899F802DD7
:104DC00011248093A102AA2059F00E946F089FEF3E
:104DD0001A140CF491E0899F802D11248093A20273
:104DE0003091A1023323B1F02091A202222391F04D
:104DF00045EB3403C0011124992309F464C1909355
:104E0000A10245EB240390011124332309F45FC16F
:104E10003093A202812F802B09F448C080919A021E
:104E200090919B020E943C059C01909199029923CC
:104E300009F4A3C325363105C8F19F3F19F09F5FE0
:104E400090939902112359F00E944D089FEF11167B
:104E50000CF491E0899F802D11248093A3020023FC
:104E600059F00E944D089FEF10160CF491E0899FB5
:104E7000802D11248093A4023091A3023323B1F03A
:104E80002091A402222391F045EB3403C0011124A8
:104E9000992309F420C19093A30245EB24039001C8
:104EA0001124332309F41BC13093A4028091A10281
:104EB0009091A202892B9091A302892B9091A40238
:104EC000892B11F00E94510786E0FE013196AFE96F
:104ED000B2E001900D928A95E1F73091AD022091F8
:104EE000AE029091AF028091B0027091A7026091E2
:104EF000A8024091A9025091AA02F091AC02E0915F
:104F0000A602FE13F0C0332311F03713ECC02223A6
:104F100011F06213E8C0882311F08513E4C09923CF
:104F200019F081E04913E0C080E0DEC092E0FBCDE3
:104F30008091DB02843009F110928F020FB6F89451
:104F4000A895E09260000FBE5092600083B7817F09
:104F5000846083BF83B7816083BF7894889583B76B
:104F60008E7F83BF0FB6F894A8958091600088610A
:104F700080936000109260000FBE8091DA02882357
:104F800061F00E944E20E2ECF2E081919191892B38
:104F900009F0BBC2CE16DF06C1F78091DB02853077
:104FA00009F4C6CF0E941B130E945106D5CD6F5F36
:104FB000AA0CBB1C6E3009F0F3CD0F5F1F4F0430FD
:104FC000110509F0DECD8FEF8EA38FA318A60E94E6
:104FD0004B058160782F9AA789A74EA15FA168A58C
:104FE0008AA50E94BE1F03CE863059F4F0E0E45F2C
:104FF000F94FE4910E2F10E08DE8A82E80E1B82E35
:105000000FCE893061F4E695F0E0E75FF94FE49167
:105010000E2F10E0B7E6AB2EBEE0BB2E01CE8F30D8
:1050200061F4E695F0E0EA5FF94FE4910E2F10E0AD
:10503000A1E9AA2EAEE0BA2EF3CD853159F4F0E005
:10504000ED5FF94FE4910E2F10E0FFEFAF2EFEE081
:10505000BF2EE6CD08E210E06DE4A62E6FE0B62E7E
:10506000883109F4DDCD833249F4E1E0F6E00591C1
:105070001491E0E2AE2EE0E1BE2ED2CD04EF11E0BD
:1050800056EDA52E5FE0B52E843209F4C9CD00EDB2
:1050900017E045E2A42E45E0B42E853209F0C0CDDC
:1050A0008E2F63E00E94122BE92FF0E0E250FA4FBE
:1050B000E4910E2F10E076EEA72E70E1B72EB0CD62
:1050C00082E090E0DFCD81E08093A1029ACE81E082
:1050D0008093A2029FCE81E08093A302DECE81E086
:1050E0008093A402E3CE81E080FF04C08BEA92E0CB
:1050F0000E9443061092AD021092AE021092AF02CF
:105100001092B00286E0EBEAF2E0A5EAB2E001908C
:105110000D928A95E1F70E9451069091B10289178C
:1051200021F00E9451068093B1028091DB0284300D
:1051300009F00BCD83E08093E9008091E80082FFC5
:1051400004CD8091E80090E085FF0BC00E94BA0377
:1051500030E2A32EB12C8E010F5F1F4F8823E1F0A8
:1051600091E08091E8008B778093E800992309F41F
:10517000ECCCE981E150E33108F094C0F0E0E85B69
:10518000F14D0C94542B8091F100F80181938F0123
:10519000F1E0AF1AB10821F38091E80085FDF3CF6B
:1051A0008091E8008B778093E8000E94BA038823FF
:1051B00099F3D6CF1A8289E08B833FC08A818230EF
:1051C00009F4D2C18330A9F0813009F06BC02FB748
:1051D000F8946091CA027091CB028091CC029091B8
:1051E000CD022FBF0E945A2B6B837C838D839E83BD
:1051F00024C08091C2029091C302982789279827E2
:105200009C838B838091C4029091C5029827892743
:1052100098279E838D838091C6029091C70298271C
:105220008927982798878F838091C8029091C90217
:105230009827892798279A8789878091DB0284306D
:1052400009F083CC1091E9001F709091EC00892F38
:10525000817090FD80E8182B82E08093E9008091B6
:10526000E80080FF0DC050E040E060E270E0CE0159
:1052700001960E94EB038091E8008E778093E8000E
:105280001F701093E90061CC8A81823059F46B81E0
:105290007C818D819E810E945A2B86E290E00E9443
:1052A000ED2BCBCF8FEF8983C8CF4C816B818A8167
:1052B0000E947D0A9827892798279E838D83BDCFDA
:1052C0000D811E811027012710278A81AB802CE1D8
:1052D000A29E5001112440E7849FA00CB11C112410
:1052E0008C8190E0880F991FA80EB91E612FC5010F
:1052F00087960E94ED2B602FC5018896D0CF0E9423
:10530000AA0C9BCF8A818138C1F060F4803809F003
:1053100094CF20E04B816091BF028091BE020E9439
:1053200012128BCF823859F1833809F086CF20E0F2
:105330004091C0026C818B81F2CF60E08B810E9432
:10534000ED159B818091BD02911111C08E7F8093DC
:10535000BD021092BC028FEF90E7E2E081509040D6
:10536000E040E1F700C000000E94320E66CF81608D
:105370008093BD0260E086950E94ED155ECF8B8123
:105380008093C1025ACF8A81813899F030F48038F5
:1053900009F053CF8091C0020FCF823891F083384B
:1053A00009F04BCF8091BE028B838091BF028C832A
:1053B00044CF8091BD0280FF02C08695FDCE80E083
:1053C000FBCE8091C102F8CE6091BD027091BE0209
:1053D0008091BF029091C0020E9400122ECF80E106
:1053E0008A832BCF82E08A8389E1E6CE0A811B8102
:1053F000102701271027CE0101965C018C80FC014B
:10540000E80DF11D4F01C80189519E4FA814B90440
:1054100009F413CF0931F2E01F0750F40E94D92B91
:10542000F50184830F5F1F4FFFEFAF1ABF0AEBCF69
:10543000F5011482F7CF0A811B811027012710275D
:10544000CE0101964C01AC80A00EB12EB11CC8015A
:1054500089519E4F0A151B0509F4EFCE0931E2E090
:105460001E0720F4F40164810E94ED2BFFEF8F1AD8
:105470009F0A0F5F1F4FEBCF0E94190DDECE84E015
:10548000AFCF0A811B81102701271027CE0101967B
:105490005C018C80FC01E80DF11D4F01C80187966D
:1054A0008A149B0409F4C9CE003CF1E01F0750F4B4
:1054B0000E94D92BF50184830F5F1F4FFFEFAF1AB6
:1054C000BF0AECCFF5011482F7CF0A811B811027A8
:1054D00001271027CE0101964C01AC80A00EB12E01
:1054E000B11CC8018796A016B10609F4A6CE003CEF
:1054F000E1E01E0720F4F40164810E94ED2BFFEF30
:105500008F1A9F0A0F5F1F4FECCF09BD19BD09B459
:1055100000FEFDCF8091D8008F7D8093D8008091D0
:10552000E00082608093E0008091E00081FDFCCF8C
:105530000E941B1332CD60E086E290E00E94ED2BCA
:105540000E94AA0C0E94190D61E283E290E00E9481
:10555000ED2B68E084E290E00E94ED2B66E285E2AC
:1055600090E00E94ED2B9BCA86E290E00E94D92B2E
:105570001B821C821D828E8360CE2D32314008F04A
:105580005ECC94CC2D32314008F00DCC43CC7894D5
:105590001F921FB61F9211248F939F93AF93BF93B7
:1055A0008091CA029091CB02A091CC02B091CD0221
:1055B0000196A11DB11D8093CA029093CB02A093C6
:1055C000CC02B093CD02BF91AF919F918F911F906C
:1055D0001FBE1F9018951F921FB61F9211248F9304
:1055E0009F93AF93BF9380918F02811113C08091DD
:1055F000CA029091CB02A091CC02B091CD0241960B
:10560000A11DB11D8093CA029093CB02A093CC023E
:10561000B093CD02BF91AF919F918F911F901FBE0C
:105620001F901895991B79E004C0991F961708F0F0
:10563000961B881F7A95C9F78095089587FB082ED9
:10564000062687FD819567FD61950E94122B0EF459
:10565000919507FC81950895AA1BBB1B51E107C0DA
:10566000AA1FBB1FA617B70710F0A61BB70B881FF2
:10567000991F5A95A9F780959095BC01CD01089581
:1056800097FB072E16F4009407D077FD09D00E94EF
:105690002C2B07FC05D03EF4909581959F4F0895E3
:1056A000709561957F4F0895EE0FFF1F0590F4915F
:1056B000E02D099469279627692778278727782777
:1056C00008950E94752C332312F48A1B9B0B0C94B3
:1056D0006B2B0E94752CB7FF0895821B930B0895C6
:1056E0008F929F92AF92BF92CF92DF92EF92FF92F2
:1056F000CF93DF93EC01688179818A819B81611569
:1057000071058105910521F464E279ED8BE597E05F
:105710002DE133EF41E050E00E94212C49015A0174
:105720009B01AC01A7EAB1E40E94402C6B017C0113
:10573000ACEEB4EFA50194010E944E2CDC01CB012C
:105740008C0D9D1DAE1DBF1DB7FF03C00197A109A4
:10575000B04888839983AA83BB839F77DF91CF91D9
:10576000FF90EF90DF90CF90BF90AF909F908F9081
:1057700008950E94702B089580E091E00E94702BA4
:105780000895B0E0A0E08093000190930101A09300
:105790000201B09303010895FC014150504030F0E4
:1057A00001900616D1F73197CF01089588279927E0
:1057B0000895F999FECF92BD81BDF89A992780B5D9
:1057C0000895A6E1B0E044E050E00C94132CA8E169
:1057D000B0E042E050E00C94132C262FF999FECF54
:1057E00092BD81BDF89A019700B4021639F01FBA34
:1057F00020BD0FB6F894FA9AF99A0FBE0895039651
:10580000272F0E94EE2B0E94ED2B252F0E94EE2BBE
:10581000242F0C94EE2B0196272F0E94EE2B0C9434
:10582000ED2BDC01CB01FC01F999FECF06C0F2BDE6
:10583000E1BDF89A319600B40D9241505040B8F74E
:105840000895052E97FB1EF400940E94382C57FDF6
:1058500007D00E94532C07FC03D04EF40C94382C34
:1058600050954095309521953F4F4F4F5F4F08958C
:1058700090958095709561957F4F8F4F9F4F0895BC
:105880000E94752CA59F900DB49F900DA49F800D34
:10589000911D11240895B7FF0C94402C0E94402CB8
:1058A000821B930B0895A1E21A2EAA1BBB1BFD01BC
:1058B0000DC0AA1FBB1FEE1FFF1FA217B307E407EF
:1058C000F50720F0A21BB30BE40BF50B661F771F47
:1058D000881F991F1A9469F7609570958095909527
:1058E0009B01AC01BD01CF010895A29FB001B39F00
:1058F000C001A39F700D811D1124911DB29F700DD9
:10590000811D1124911D08955058BB27AA270E947C
:105910009C2C0C947B2D0E946D2D38F00E94742DD0
:1059200020F039F49F3F19F426F40C946A2D0EF4FC
:10593000E095E7FB0C94642DE92F0E948C2D58F321
:10594000BA17620773078407950720F079F4A6F564
:105950000C94AE2D0EF4E0950B2EBA2FA02D0B015A
:10596000B90190010C01CA01A0011124FF27591BA4
:1059700099F0593F50F4503E68F11A16F040A22FAA
:10598000232F342F4427585FF3CF4695379527951B
:10599000A795F0405395C9F77EF41F16BA0B620B1A
:1059A000730B840BBAF09150A1F0FF0FBB1F661F61
:1059B000771F881FC2F70EC0BA0F621F731F841FA4
:1059C00048F4879577956795B795F7959E3F08F0CA
:1059D000B0CF9395880F08F09927EE0F979587958C
:1059E00008950E94F82C6894B1110C94AF2D08957D
:1059F0000E94942D88F09F5798F0B92F9927B7519E
:105A0000B0F0E1F0660F771F881F991F1AF0BA9562
:105A1000C9F714C0B13091F00E94AE2DB1E00895E5
:105A20000C94AE2D672F782F8827B85F39F0B93FD7
:105A3000CCF3869577956795B395D9F73EF4909515
:105A40008095709561957F4F8F4F9F4F0895E89493
:105A500009C097FB3EF490958095709561957F4FB6
:105A60008F4F9F4F9923A9F0F92F96E9BB27939564
:105A7000F695879577956795B795F111F8CFFAF474
:105A8000BB0F11F460FF1BC06F5F7F4F8F4F9F4FA5
:105A900016C0882311F096E911C0772321F09EE803
:105AA000872F762F05C0662371F096E8862F70E069
:105AB00060E02AF09A95660F771F881FDAF7880F43
:105AC0009695879597F9089597F99F6780E870E014
:105AD00060E008959FEF80EC089500240A94161664
